{
  "_format": "hh-sol-artifact-1",
  "contractName": "nftRecord",
  "sourceName": "contracts/nftRecord.sol",
  "abi": [
    {
      "inputs": [],
      "stateMutability": "nonpayable",
      "type": "constructor"
    },
    {
      "anonymous": false,
      "inputs": [
        {
          "indexed": true,
          "internalType": "address",
          "name": "owner",
          "type": "address"
        },
        {
          "indexed": true,
          "internalType": "address",
          "name": "approved",
          "type": "address"
        },
        {
          "indexed": true,
          "internalType": "uint256",
          "name": "tokenId",
          "type": "uint256"
        }
      ],
      "name": "Approval",
      "type": "event"
    },
    {
      "anonymous": false,
      "inputs": [
        {
          "indexed": true,
          "internalType": "address",
          "name": "owner",
          "type": "address"
        },
        {
          "indexed": true,
          "internalType": "address",
          "name": "operator",
          "type": "address"
        },
        {
          "indexed": false,
          "internalType": "bool",
          "name": "approved",
          "type": "bool"
        }
      ],
      "name": "ApprovalForAll",
      "type": "event"
    },
    {
      "anonymous": false,
      "inputs": [
        {
          "indexed": true,
          "internalType": "bytes32",
          "name": "role",
          "type": "bytes32"
        },
        {
          "indexed": true,
          "internalType": "bytes32",
          "name": "previousAdminRole",
          "type": "bytes32"
        },
        {
          "indexed": true,
          "internalType": "bytes32",
          "name": "newAdminRole",
          "type": "bytes32"
        }
      ],
      "name": "RoleAdminChanged",
      "type": "event"
    },
    {
      "anonymous": false,
      "inputs": [
        {
          "indexed": true,
          "internalType": "bytes32",
          "name": "role",
          "type": "bytes32"
        },
        {
          "indexed": true,
          "internalType": "address",
          "name": "account",
          "type": "address"
        },
        {
          "indexed": true,
          "internalType": "address",
          "name": "sender",
          "type": "address"
        }
      ],
      "name": "RoleGranted",
      "type": "event"
    },
    {
      "anonymous": false,
      "inputs": [
        {
          "indexed": true,
          "internalType": "bytes32",
          "name": "role",
          "type": "bytes32"
        },
        {
          "indexed": true,
          "internalType": "address",
          "name": "account",
          "type": "address"
        },
        {
          "indexed": true,
          "internalType": "address",
          "name": "sender",
          "type": "address"
        }
      ],
      "name": "RoleRevoked",
      "type": "event"
    },
    {
      "anonymous": false,
      "inputs": [
        {
          "indexed": true,
          "internalType": "address",
          "name": "from",
          "type": "address"
        },
        {
          "indexed": true,
          "internalType": "address",
          "name": "to",
          "type": "address"
        },
        {
          "indexed": true,
          "internalType": "uint256",
          "name": "tokenId",
          "type": "uint256"
        }
      ],
      "name": "Transfer",
      "type": "event"
    },
    {
      "inputs": [],
      "name": "DCREATOR_ROLE",
      "outputs": [
        {
          "internalType": "bytes32",
          "name": "",
          "type": "bytes32"
        }
      ],
      "stateMutability": "view",
      "type": "function"
    },
    {
      "inputs": [],
      "name": "DEFAULT_ADMIN_ROLE",
      "outputs": [
        {
          "internalType": "bytes32",
          "name": "",
          "type": "bytes32"
        }
      ],
      "stateMutability": "view",
      "type": "function"
    },
    {
      "inputs": [],
      "name": "PATIENT_ROLE",
      "outputs": [
        {
          "internalType": "bytes32",
          "name": "",
          "type": "bytes32"
        }
      ],
      "stateMutability": "view",
      "type": "function"
    },
    {
      "inputs": [
        {
          "internalType": "address",
          "name": "to",
          "type": "address"
        },
        {
          "internalType": "uint256",
          "name": "tokenId",
          "type": "uint256"
        }
      ],
      "name": "approve",
      "outputs": [],
      "stateMutability": "nonpayable",
      "type": "function"
    },
    {
      "inputs": [
        {
          "internalType": "address",
          "name": "owner",
          "type": "address"
        }
      ],
      "name": "balanceOf",
      "outputs": [
        {
          "internalType": "uint256",
          "name": "",
          "type": "uint256"
        }
      ],
      "stateMutability": "view",
      "type": "function"
    },
    {
      "inputs": [
        {
          "internalType": "uint256",
          "name": "tokenId",
          "type": "uint256"
        }
      ],
      "name": "getApproved",
      "outputs": [
        {
          "internalType": "address",
          "name": "",
          "type": "address"
        }
      ],
      "stateMutability": "view",
      "type": "function"
    },
    {
      "inputs": [
        {
          "internalType": "bytes32",
          "name": "role",
          "type": "bytes32"
        }
      ],
      "name": "getRoleAdmin",
      "outputs": [
        {
          "internalType": "bytes32",
          "name": "",
          "type": "bytes32"
        }
      ],
      "stateMutability": "view",
      "type": "function"
    },
    {
      "inputs": [
        {
          "internalType": "address",
          "name": "minter",
          "type": "address"
        }
      ],
      "name": "givePermission",
      "outputs": [],
      "stateMutability": "nonpayable",
      "type": "function"
    },
    {
      "inputs": [
        {
          "internalType": "bytes32",
          "name": "role",
          "type": "bytes32"
        },
        {
          "internalType": "address",
          "name": "account",
          "type": "address"
        }
      ],
      "name": "grantRole",
      "outputs": [],
      "stateMutability": "nonpayable",
      "type": "function"
    },
    {
      "inputs": [
        {
          "internalType": "bytes32",
          "name": "role",
          "type": "bytes32"
        },
        {
          "internalType": "address",
          "name": "account",
          "type": "address"
        }
      ],
      "name": "hasRole",
      "outputs": [
        {
          "internalType": "bool",
          "name": "",
          "type": "bool"
        }
      ],
      "stateMutability": "view",
      "type": "function"
    },
    {
      "inputs": [
        {
          "internalType": "address",
          "name": "owner",
          "type": "address"
        },
        {
          "internalType": "address",
          "name": "operator",
          "type": "address"
        }
      ],
      "name": "isApprovedForAll",
      "outputs": [
        {
          "internalType": "bool",
          "name": "",
          "type": "bool"
        }
      ],
      "stateMutability": "view",
      "type": "function"
    },
    {
      "inputs": [
        {
          "internalType": "string",
          "name": "tokenURI",
          "type": "string"
        }
      ],
      "name": "mint",
      "outputs": [
        {
          "internalType": "uint256",
          "name": "_tokenCount",
          "type": "uint256"
        }
      ],
      "stateMutability": "payable",
      "type": "function"
    },
    {
      "inputs": [],
      "name": "name",
      "outputs": [
        {
          "internalType": "string",
          "name": "",
          "type": "string"
        }
      ],
      "stateMutability": "view",
      "type": "function"
    },
    {
      "inputs": [
        {
          "internalType": "uint256",
          "name": "tokenId",
          "type": "uint256"
        }
      ],
      "name": "ownerOf",
      "outputs": [
        {
          "internalType": "address",
          "name": "",
          "type": "address"
        }
      ],
      "stateMutability": "view",
      "type": "function"
    },
    {
      "inputs": [
        {
          "internalType": "bytes32",
          "name": "role",
          "type": "bytes32"
        },
        {
          "internalType": "address",
          "name": "account",
          "type": "address"
        }
      ],
      "name": "renounceRole",
      "outputs": [],
      "stateMutability": "nonpayable",
      "type": "function"
    },
    {
      "inputs": [
        {
          "internalType": "bytes32",
          "name": "role",
          "type": "bytes32"
        },
        {
          "internalType": "address",
          "name": "account",
          "type": "address"
        }
      ],
      "name": "revokeRole",
      "outputs": [],
      "stateMutability": "nonpayable",
      "type": "function"
    },
    {
      "inputs": [
        {
          "internalType": "address",
          "name": "from",
          "type": "address"
        },
        {
          "internalType": "address",
          "name": "to",
          "type": "address"
        },
        {
          "internalType": "uint256",
          "name": "tokenId",
          "type": "uint256"
        }
      ],
      "name": "safeTransferFrom",
      "outputs": [],
      "stateMutability": "nonpayable",
      "type": "function"
    },
    {
      "inputs": [
        {
          "internalType": "address",
          "name": "from",
          "type": "address"
        },
        {
          "internalType": "address",
          "name": "to",
          "type": "address"
        },
        {
          "internalType": "uint256",
          "name": "tokenId",
          "type": "uint256"
        },
        {
          "internalType": "bytes",
          "name": "_data",
          "type": "bytes"
        }
      ],
      "name": "safeTransferFrom",
      "outputs": [],
      "stateMutability": "nonpayable",
      "type": "function"
    },
    {
      "inputs": [
        {
          "internalType": "address",
          "name": "operator",
          "type": "address"
        },
        {
          "internalType": "bool",
          "name": "approved",
          "type": "bool"
        }
      ],
      "name": "setApprovalForAll",
      "outputs": [],
      "stateMutability": "nonpayable",
      "type": "function"
    },
    {
      "inputs": [
        {
          "internalType": "bytes4",
          "name": "interfaceId",
          "type": "bytes4"
        }
      ],
      "name": "supportsInterface",
      "outputs": [
        {
          "internalType": "bool",
          "name": "",
          "type": "bool"
        }
      ],
      "stateMutability": "view",
      "type": "function"
    },
    {
      "inputs": [],
      "name": "symbol",
      "outputs": [
        {
          "internalType": "string",
          "name": "",
          "type": "string"
        }
      ],
      "stateMutability": "view",
      "type": "function"
    },
    {
      "inputs": [],
      "name": "tokenCount",
      "outputs": [
        {
          "internalType": "uint256",
          "name": "",
          "type": "uint256"
        }
      ],
      "stateMutability": "view",
      "type": "function"
    },
    {
      "inputs": [
        {
          "internalType": "uint256",
          "name": "tokenId",
          "type": "uint256"
        }
      ],
      "name": "tokenURI",
      "outputs": [
        {
          "internalType": "string",
          "name": "",
          "type": "string"
        }
      ],
      "stateMutability": "view",
      "type": "function"
    },
    {
      "inputs": [
        {
          "internalType": "address",
          "name": "from",
          "type": "address"
        },
        {
          "internalType": "address",
          "name": "to",
          "type": "address"
        },
        {
          "internalType": "uint256",
          "name": "tokenId",
          "type": "uint256"
        }
      ],
      "name": "transferFrom",
      "outputs": [],
      "stateMutability": "nonpayable",
      "type": "function"
    }
  ],
  "bytecode": "0x60806040523480156200001157600080fd5b506040518060400160405280600981526020017f6e66745265636f726400000000000000000000000000000000000000000000008152506040518060400160405280600481526020017f4d544b4e00000000000000000000000000000000000000000000000000000000815250816001908051906020019062000096929190620002fd565b508060029080519060200190620000af929190620002fd565b50505033600860006101000a81548173ffffffffffffffffffffffffffffffffffffffff021916908373ffffffffffffffffffffffffffffffffffffffff1602179055506200012a6000801b600860009054906101000a900473ffffffffffffffffffffffffffffffffffffffff166200018460201b60201c565b6200017e7f72606200fac42b7dc86b75901d61ecfab2a4a1a6eded478b97a428094891abed600860009054906101000a900473ffffffffffffffffffffffffffffffffffffffff166200018460201b60201c565b62000412565b6200019682826200019a60201b60201c565b5050565b620001ac82826200028b60201b60201c565b6200028757600160008084815260200190815260200160002060000160008373ffffffffffffffffffffffffffffffffffffffff1673ffffffffffffffffffffffffffffffffffffffff16815260200190815260200160002060006101000a81548160ff0219169083151502179055506200022c620002f560201b60201c565b73ffffffffffffffffffffffffffffffffffffffff168173ffffffffffffffffffffffffffffffffffffffff16837f2f8788117e7eff1d82e926ec794901d17c78024a50270940304540a733656f0d60405160405180910390a45b5050565b600080600084815260200190815260200160002060000160008373ffffffffffffffffffffffffffffffffffffffff1673ffffffffffffffffffffffffffffffffffffffff16815260200190815260200160002060009054906101000a900460ff16905092915050565b600033905090565b8280546200030b90620003ad565b90600052602060002090601f0160209004810192826200032f57600085556200037b565b82601f106200034a57805160ff19168380011785556200037b565b828001600101855582156200037b579182015b828111156200037a5782518255916020019190600101906200035d565b5b5090506200038a91906200038e565b5090565b5b80821115620003a95760008160009055506001016200038f565b5090565b60006002820490506001821680620003c657607f821691505b60208210811415620003dd57620003dc620003e3565b5b50919050565b7f4e487b7100000000000000000000000000000000000000000000000000000000600052602260045260246000fd5b613a2280620004226000396000f3fe60806040526004361061014b5760003560e01c806370a08231116100b6578063ac5cb97d1161006f578063ac5cb97d146104b4578063b88d4fde146104df578063c87b56dd14610508578063d547741f14610545578063d85d3d271461056e578063e985e9c51461059e5761014b565b806370a082311461039057806391d14854146103cd57806395d89b411461040a5780639f181b5e14610435578063a217fddf14610460578063a22cb4651461048b5761014b565b8063248a9ca311610108578063248a9ca3146102725780632f2ff15d146102af57806336568abe146102d85780633d391f701461030157806342842e0e1461032a5780636352211e146103535761014b565b806301ffc9a71461015057806306fdde031461018d578063081812fc146101b8578063095ea7b3146101f5578063121e42581461021e57806323b872dd14610249575b600080fd5b34801561015c57600080fd5b50610177600480360381019061017291906127ef565b6105db565b6040516101849190612d0b565b60405180910390f35b34801561019957600080fd5b506101a26105ed565b6040516101af9190612d41565b60405180910390f35b3480156101c457600080fd5b506101df60048036038101906101da9190612882565b61067f565b6040516101ec9190612ca4565b60405180910390f35b34801561020157600080fd5b5061021c6004803603810190610217919061274e565b610704565b005b34801561022a57600080fd5b5061023361081c565b6040516102409190612d26565b60405180910390f35b34801561025557600080fd5b50610270600480360381019061026b9190612648565b610840565b005b34801561027e57600080fd5b506102996004803603810190610294919061278a565b6108a0565b6040516102a69190612d26565b60405180910390f35b3480156102bb57600080fd5b506102d660048036038101906102d191906127b3565b6108bf565b005b3480156102e457600080fd5b506102ff60048036038101906102fa91906127b3565b6108e8565b005b34801561030d57600080fd5b50610328600480360381019061032391906125e3565b61096b565b005b34801561033657600080fd5b50610351600480360381019061034c9190612648565b610998565b005b34801561035f57600080fd5b5061037a60048036038101906103759190612882565b6109b8565b6040516103879190612ca4565b60405180910390f35b34801561039c57600080fd5b506103b760048036038101906103b291906125e3565b610a6a565b6040516103c49190612fa3565b60405180910390f35b3480156103d957600080fd5b506103f460048036038101906103ef91906127b3565b610b22565b6040516104019190612d0b565b60405180910390f35b34801561041657600080fd5b5061041f610b8c565b60405161042c9190612d41565b60405180910390f35b34801561044157600080fd5b5061044a610c1e565b6040516104579190612fa3565b60405180910390f35b34801561046c57600080fd5b50610475610c24565b6040516104829190612d26565b60405180910390f35b34801561049757600080fd5b506104b260048036038101906104ad9190612712565b610c2b565b005b3480156104c057600080fd5b506104c9610c41565b6040516104d69190612d26565b60405180910390f35b3480156104eb57600080fd5b5061050660048036038101906105019190612697565b610c65565b005b34801561051457600080fd5b5061052f600480360381019061052a9190612882565b610cc7565b60405161053c9190612d41565b60405180910390f35b34801561055157600080fd5b5061056c600480360381019061056791906127b3565b610e19565b005b61058860048036038101906105839190612841565b610e42565b6040516105959190612fa3565b60405180910390f35b3480156105aa57600080fd5b506105c560048036038101906105c0919061260c565b610f0f565b6040516105d29190612d0b565b60405180910390f35b60006105e682610fa3565b9050919050565b6060600180546105fc90613287565b80601f016020809104026020016040519081016040528092919081815260200182805461062890613287565b80156106755780601f1061064a57610100808354040283529160200191610675565b820191906000526020600020905b81548152906001019060200180831161065857829003601f168201915b5050505050905090565b600061068a82611085565b6106c9576040517f08c379a00000000000000000000000000000000000000000000000000000000081526004016106c090612f03565b60405180910390fd5b6005600083815260200190815260200160002060009054906101000a900473ffffffffffffffffffffffffffffffffffffffff169050919050565b600061070f826109b8565b90508073ffffffffffffffffffffffffffffffffffffffff168373ffffffffffffffffffffffffffffffffffffffff161415610780576040517f08c379a000000000000000000000000000000000000000000000000000000000815260040161077790612f43565b60405180910390fd5b8073ffffffffffffffffffffffffffffffffffffffff1661079f6110f1565b73ffffffffffffffffffffffffffffffffffffffff1614806107ce57506107cd816107c86110f1565b610f0f565b5b61080d576040517f08c379a000000000000000000000000000000000000000000000000000000000815260040161080490612e43565b60405180910390fd5b61081783836110f9565b505050565b7f98f5419195ae2b82f54a644e2202c41d55457fb1eb8f4cc2a3719f6317ed2ca781565b61085161084b6110f1565b826111b2565b610890576040517f08c379a000000000000000000000000000000000000000000000000000000000815260040161088790612f63565b60405180910390fd5b61089b838383611290565b505050565b6000806000838152602001908152602001600020600101549050919050565b6108c8826108a0565b6108d9816108d46110f1565b6114f7565b6108e38383611594565b505050565b6108f06110f1565b73ffffffffffffffffffffffffffffffffffffffff168173ffffffffffffffffffffffffffffffffffffffff161461095d576040517f08c379a000000000000000000000000000000000000000000000000000000000815260040161095490612f83565b60405180910390fd5b6109678282611674565b5050565b6109957f98f5419195ae2b82f54a644e2202c41d55457fb1eb8f4cc2a3719f6317ed2ca782611594565b50565b6109b383838360405180602001604052806000815250610c65565b505050565b6000806003600084815260200190815260200160002060009054906101000a900473ffffffffffffffffffffffffffffffffffffffff169050600073ffffffffffffffffffffffffffffffffffffffff168173ffffffffffffffffffffffffffffffffffffffff161415610a61576040517f08c379a0000000000000000000000000000000000000000000000000000000008152600401610a5890612e83565b60405180910390fd5b80915050919050565b60008073ffffffffffffffffffffffffffffffffffffffff168273ffffffffffffffffffffffffffffffffffffffff161415610adb576040517f08c379a0000000000000000000000000000000000000000000000000000000008152600401610ad290612e63565b60405180910390fd5b600460008373ffffffffffffffffffffffffffffffffffffffff1673ffffffffffffffffffffffffffffffffffffffff168152602001908152602001600020549050919050565b600080600084815260200190815260200160002060000160008373ffffffffffffffffffffffffffffffffffffffff1673ffffffffffffffffffffffffffffffffffffffff16815260200190815260200160002060009054906101000a900460ff16905092915050565b606060028054610b9b90613287565b80601f0160208091040260200160405190810160405280929190818152602001828054610bc790613287565b8015610c145780601f10610be957610100808354040283529160200191610c14565b820191906000526020600020905b815481529060010190602001808311610bf757829003601f168201915b5050505050905090565b60095481565b6000801b81565b610c3d610c366110f1565b8383611755565b5050565b7f72606200fac42b7dc86b75901d61ecfab2a4a1a6eded478b97a428094891abed81565b610c76610c706110f1565b836111b2565b610cb5576040517f08c379a0000000000000000000000000000000000000000000000000000000008152600401610cac90612f63565b60405180910390fd5b610cc1848484846118c2565b50505050565b6060610cd282611085565b610d11576040517f08c379a0000000000000000000000000000000000000000000000000000000008152600401610d0890612ee3565b60405180910390fd5b6000600760008481526020019081526020016000208054610d3190613287565b80601f0160208091040260200160405190810160405280929190818152602001828054610d5d90613287565b8015610daa5780601f10610d7f57610100808354040283529160200191610daa565b820191906000526020600020905b815481529060010190602001808311610d8d57829003601f168201915b505050505090506000610dbb61191e565b9050600081511415610dd1578192505050610e14565b600082511115610e06578082604051602001610dee929190612c46565b60405160208183030381529060405292505050610e14565b610e0f84611935565b925050505b919050565b610e22826108a0565b610e3381610e2e6110f1565b6114f7565b610e3d8383611674565b505050565b6000610e6e7f72606200fac42b7dc86b75901d61ecfab2a4a1a6eded478b97a428094891abed33610b22565b80610e9f5750610e9e7f98f5419195ae2b82f54a644e2202c41d55457fb1eb8f4cc2a3719f6317ed2ca733610b22565b5b15610f005760096000815480929190610eb7906132ea565b9190505550610eea600860009054906101000a900473ffffffffffffffffffffffffffffffffffffffff166009546119dc565b610ef6600954836119fa565b6009549050610f0a565b610f093361096b565b5b919050565b6000600660008473ffffffffffffffffffffffffffffffffffffffff1673ffffffffffffffffffffffffffffffffffffffff16815260200190815260200160002060008373ffffffffffffffffffffffffffffffffffffffff1673ffffffffffffffffffffffffffffffffffffffff16815260200190815260200160002060009054906101000a900460ff16905092915050565b60007f80ac58cd000000000000000000000000000000000000000000000000000000007bffffffffffffffffffffffffffffffffffffffffffffffffffffffff1916827bffffffffffffffffffffffffffffffffffffffffffffffffffffffff1916148061106e57507f5b5e139f000000000000000000000000000000000000000000000000000000007bffffffffffffffffffffffffffffffffffffffffffffffffffffffff1916827bffffffffffffffffffffffffffffffffffffffffffffffffffffffff1916145b8061107e575061107d82611a6e565b5b9050919050565b60008073ffffffffffffffffffffffffffffffffffffffff166003600084815260200190815260200160002060009054906101000a900473ffffffffffffffffffffffffffffffffffffffff1673ffffffffffffffffffffffffffffffffffffffff1614159050919050565b600033905090565b816005600083815260200190815260200160002060006101000a81548173ffffffffffffffffffffffffffffffffffffffff021916908373ffffffffffffffffffffffffffffffffffffffff160217905550808273ffffffffffffffffffffffffffffffffffffffff1661116c836109b8565b73ffffffffffffffffffffffffffffffffffffffff167f8c5be1e5ebec7d5bd14f71427d1e84f3dd0314c0f7b2291e5b200ac8c7c3b92560405160405180910390a45050565b60006111bd82611085565b6111fc576040517f08c379a00000000000000000000000000000000000000000000000000000000081526004016111f390612e23565b60405180910390fd5b6000611207836109b8565b90508073ffffffffffffffffffffffffffffffffffffffff168473ffffffffffffffffffffffffffffffffffffffff16148061127657508373ffffffffffffffffffffffffffffffffffffffff1661125e8461067f565b73ffffffffffffffffffffffffffffffffffffffff16145b8061128757506112868185610f0f565b5b91505092915050565b8273ffffffffffffffffffffffffffffffffffffffff166112b0826109b8565b73ffffffffffffffffffffffffffffffffffffffff1614611306576040517f08c379a00000000000000000000000000000000000000000000000000000000081526004016112fd90612da3565b60405180910390fd5b600073ffffffffffffffffffffffffffffffffffffffff168273ffffffffffffffffffffffffffffffffffffffff161415611376576040517f08c379a000000000000000000000000000000000000000000000000000000000815260040161136d90612de3565b60405180910390fd5b611381838383611ae8565b61138c6000826110f9565b6001600460008573ffffffffffffffffffffffffffffffffffffffff1673ffffffffffffffffffffffffffffffffffffffff16815260200190815260200160002060008282546113dc9190613169565b925050819055506001600460008473ffffffffffffffffffffffffffffffffffffffff1673ffffffffffffffffffffffffffffffffffffffff16815260200190815260200160002060008282546114339190613088565b92505081905550816003600083815260200190815260200160002060006101000a81548173ffffffffffffffffffffffffffffffffffffffff021916908373ffffffffffffffffffffffffffffffffffffffff160217905550808273ffffffffffffffffffffffffffffffffffffffff168473ffffffffffffffffffffffffffffffffffffffff167fddf252ad1be2c89b69c2b068fc378daa952ba7f163c4a11628f55a4df523b3ef60405160405180910390a46114f2838383611aed565b505050565b6115018282610b22565b611590576115268173ffffffffffffffffffffffffffffffffffffffff166014611af2565b6115348360001c6020611af2565b604051602001611545929190612c6a565b6040516020818303038152906040526040517f08c379a00000000000000000000000000000000000000000000000000000000081526004016115879190612d41565b60405180910390fd5b5050565b61159e8282610b22565b61167057600160008084815260200190815260200160002060000160008373ffffffffffffffffffffffffffffffffffffffff1673ffffffffffffffffffffffffffffffffffffffff16815260200190815260200160002060006101000a81548160ff0219169083151502179055506116156110f1565b73ffffffffffffffffffffffffffffffffffffffff168173ffffffffffffffffffffffffffffffffffffffff16837f2f8788117e7eff1d82e926ec794901d17c78024a50270940304540a733656f0d60405160405180910390a45b5050565b61167e8282610b22565b1561175157600080600084815260200190815260200160002060000160008373ffffffffffffffffffffffffffffffffffffffff1673ffffffffffffffffffffffffffffffffffffffff16815260200190815260200160002060006101000a81548160ff0219169083151502179055506116f66110f1565b73ffffffffffffffffffffffffffffffffffffffff168173ffffffffffffffffffffffffffffffffffffffff16837ff6391f5c32d9c69d2a47ea670b442974b53935d1edc7fd64eb21e047a839171b60405160405180910390a45b5050565b8173ffffffffffffffffffffffffffffffffffffffff168373ffffffffffffffffffffffffffffffffffffffff1614156117c4576040517f08c379a00000000000000000000000000000000000000000000000000000000081526004016117bb90612e03565b60405180910390fd5b80600660008573ffffffffffffffffffffffffffffffffffffffff1673ffffffffffffffffffffffffffffffffffffffff16815260200190815260200160002060008473ffffffffffffffffffffffffffffffffffffffff1673ffffffffffffffffffffffffffffffffffffffff16815260200190815260200160002060006101000a81548160ff0219169083151502179055508173ffffffffffffffffffffffffffffffffffffffff168373ffffffffffffffffffffffffffffffffffffffff167f17307eab39ab6107e8899845ad3d59bd9653f200f220920489ca2b5937696c31836040516118b59190612d0b565b60405180910390a3505050565b6118cd848484611290565b6118d984848484611dec565b611918576040517f08c379a000000000000000000000000000000000000000000000000000000000815260040161190f90612d83565b60405180910390fd5b50505050565b606060405180602001604052806000815250905090565b606061194082611085565b61197f576040517f08c379a000000000000000000000000000000000000000000000000000000000815260040161197690612f23565b60405180910390fd5b600061198961191e565b905060008151116119a957604051806020016040528060008152506119d4565b806119b384611f83565b6040516020016119c4929190612c46565b6040516020818303038152906040525b915050919050565b6119f6828260405180602001604052806000815250612130565b5050565b611a0382611085565b611a42576040517f08c379a0000000000000000000000000000000000000000000000000000000008152600401611a3990612ea3565b60405180910390fd5b80600760008481526020019081526020016000209080519060200190611a699291906123f2565b505050565b60007f7965db0b000000000000000000000000000000000000000000000000000000007bffffffffffffffffffffffffffffffffffffffffffffffffffffffff1916827bffffffffffffffffffffffffffffffffffffffffffffffffffffffff19161480611ae15750611ae08261218b565b5b9050919050565b505050565b505050565b606060006002836002611b05919061310f565b611b0f9190613088565b67ffffffffffffffff811115611b4e577f4e487b7100000000000000000000000000000000000000000000000000000000600052604160045260246000fd5b6040519080825280601f01601f191660200182016040528015611b805781602001600182028036833780820191505090505b5090507f300000000000000000000000000000000000000000000000000000000000000081600081518110611bde577f4e487b7100000000000000000000000000000000000000000000000000000000600052603260045260246000fd5b60200101907effffffffffffffffffffffffffffffffffffffffffffffffffffffffffffff1916908160001a9053507f780000000000000000000000000000000000000000000000000000000000000081600181518110611c68577f4e487b7100000000000000000000000000000000000000000000000000000000600052603260045260246000fd5b60200101907effffffffffffffffffffffffffffffffffffffffffffffffffffffffffffff1916908160001a90535060006001846002611ca8919061310f565b611cb29190613088565b90505b6001811115611d9e577f3031323334353637383961626364656600000000000000000000000000000000600f861660108110611d1a577f4e487b7100000000000000000000000000000000000000000000000000000000600052603260045260246000fd5b1a60f81b828281518110611d57577f4e487b7100000000000000000000000000000000000000000000000000000000600052603260045260246000fd5b60200101907effffffffffffffffffffffffffffffffffffffffffffffffffffffffffffff1916908160001a905350600485901c945080611d979061325d565b9050611cb5565b5060008414611de2576040517f08c379a0000000000000000000000000000000000000000000000000000000008152600401611dd990612d63565b60405180910390fd5b8091505092915050565b6000611e0d8473ffffffffffffffffffffffffffffffffffffffff166121f5565b15611f76578373ffffffffffffffffffffffffffffffffffffffff1663150b7a02611e366110f1565b8786866040518563ffffffff1660e01b8152600401611e589493929190612cbf565b602060405180830381600087803b158015611e7257600080fd5b505af1925050508015611ea357506040513d601f19601f82011682018060405250810190611ea09190612818565b60015b611f26573d8060008114611ed3576040519150601f19603f3d011682016040523d82523d6000602084013e611ed8565b606091505b50600081511415611f1e576040517f08c379a0000000000000000000000000000000000000000000000000000000008152600401611f1590612d83565b60405180910390fd5b805181602001fd5b63150b7a0260e01b7bffffffffffffffffffffffffffffffffffffffffffffffffffffffff1916817bffffffffffffffffffffffffffffffffffffffffffffffffffffffff191614915050611f7b565b600190505b949350505050565b60606000821415611fcb576040518060400160405280600181526020017f3000000000000000000000000000000000000000000000000000000000000000815250905061212b565b600082905060005b60008214611ffd578080611fe6906132ea565b915050600a82611ff691906130de565b9150611fd3565b60008167ffffffffffffffff81111561203f577f4e487b7100000000000000000000000000000000000000000000000000000000600052604160045260246000fd5b6040519080825280601f01601f1916602001820160405280156120715781602001600182028036833780820191505090505b5090505b600085146121245760018261208a9190613169565b9150600a856120999190613333565b60306120a59190613088565b60f81b8183815181106120e1577f4e487b7100000000000000000000000000000000000000000000000000000000600052603260045260246000fd5b60200101907effffffffffffffffffffffffffffffffffffffffffffffffffffffffffffff1916908160001a905350600a8561211d91906130de565b9450612075565b8093505050505b919050565b61213a8383612218565b6121476000848484611dec565b612186576040517f08c379a000000000000000000000000000000000000000000000000000000000815260040161217d90612d83565b60405180910390fd5b505050565b60007f01ffc9a7000000000000000000000000000000000000000000000000000000007bffffffffffffffffffffffffffffffffffffffffffffffffffffffff1916827bffffffffffffffffffffffffffffffffffffffffffffffffffffffff1916149050919050565b6000808273ffffffffffffffffffffffffffffffffffffffff163b119050919050565b600073ffffffffffffffffffffffffffffffffffffffff168273ffffffffffffffffffffffffffffffffffffffff161415612288576040517f08c379a000000000000000000000000000000000000000000000000000000000815260040161227f90612ec3565b60405180910390fd5b61229181611085565b156122d1576040517f08c379a00000000000000000000000000000000000000000000000000000000081526004016122c890612dc3565b60405180910390fd5b6122dd60008383611ae8565b6001600460008473ffffffffffffffffffffffffffffffffffffffff1673ffffffffffffffffffffffffffffffffffffffff168152602001908152602001600020600082825461232d9190613088565b92505081905550816003600083815260200190815260200160002060006101000a81548173ffffffffffffffffffffffffffffffffffffffff021916908373ffffffffffffffffffffffffffffffffffffffff160217905550808273ffffffffffffffffffffffffffffffffffffffff16600073ffffffffffffffffffffffffffffffffffffffff167fddf252ad1be2c89b69c2b068fc378daa952ba7f163c4a11628f55a4df523b3ef60405160405180910390a46123ee60008383611aed565b5050565b8280546123fe90613287565b90600052602060002090601f0160209004810192826124205760008555612467565b82601f1061243957805160ff1916838001178555612467565b82800160010185558215612467579182015b8281111561246657825182559160200191906001019061244b565b5b5090506124749190612478565b5090565b5b80821115612491576000816000905550600101612479565b5090565b60006124a86124a384612fe3565b612fbe565b9050828152602081018484840111156124c057600080fd5b6124cb84828561321b565b509392505050565b60006124e66124e184613014565b612fbe565b9050828152602081018484840111156124fe57600080fd5b61250984828561321b565b509392505050565b60008135905061252081613979565b92915050565b60008135905061253581613990565b92915050565b60008135905061254a816139a7565b92915050565b60008135905061255f816139be565b92915050565b600081519050612574816139be565b92915050565b600082601f83011261258b57600080fd5b813561259b848260208601612495565b91505092915050565b600082601f8301126125b557600080fd5b81356125c58482602086016124d3565b91505092915050565b6000813590506125dd816139d5565b92915050565b6000602082840312156125f557600080fd5b600061260384828501612511565b91505092915050565b6000806040838503121561261f57600080fd5b600061262d85828601612511565b925050602061263e85828601612511565b9150509250929050565b60008060006060848603121561265d57600080fd5b600061266b86828701612511565b935050602061267c86828701612511565b925050604061268d868287016125ce565b9150509250925092565b600080600080608085870312156126ad57600080fd5b60006126bb87828801612511565b94505060206126cc87828801612511565b93505060406126dd878288016125ce565b925050606085013567ffffffffffffffff8111156126fa57600080fd5b6127068782880161257a565b91505092959194509250565b6000806040838503121561272557600080fd5b600061273385828601612511565b925050602061274485828601612526565b9150509250929050565b6000806040838503121561276157600080fd5b600061276f85828601612511565b9250506020612780858286016125ce565b9150509250929050565b60006020828403121561279c57600080fd5b60006127aa8482850161253b565b91505092915050565b600080604083850312156127c657600080fd5b60006127d48582860161253b565b92505060206127e585828601612511565b9150509250929050565b60006020828403121561280157600080fd5b600061280f84828501612550565b91505092915050565b60006020828403121561282a57600080fd5b600061283884828501612565565b91505092915050565b60006020828403121561285357600080fd5b600082013567ffffffffffffffff81111561286d57600080fd5b612879848285016125a4565b91505092915050565b60006020828403121561289457600080fd5b60006128a2848285016125ce565b91505092915050565b6128b48161319d565b82525050565b6128c3816131af565b82525050565b6128d2816131bb565b82525050565b60006128e382613045565b6128ed818561305b565b93506128fd81856020860161322a565b61290681613420565b840191505092915050565b600061291c82613050565b612926818561306c565b935061293681856020860161322a565b61293f81613420565b840191505092915050565b600061295582613050565b61295f818561307d565b935061296f81856020860161322a565b80840191505092915050565b600061298860208361306c565b915061299382613431565b602082019050919050565b60006129ab60328361306c565b91506129b68261345a565b604082019050919050565b60006129ce60258361306c565b91506129d9826134a9565b604082019050919050565b60006129f1601c8361306c565b91506129fc826134f8565b602082019050919050565b6000612a1460248361306c565b9150612a1f82613521565b604082019050919050565b6000612a3760198361306c565b9150612a4282613570565b602082019050919050565b6000612a5a602c8361306c565b9150612a6582613599565b604082019050919050565b6000612a7d60388361306c565b9150612a88826135e8565b604082019050919050565b6000612aa0602a8361306c565b9150612aab82613637565b604082019050919050565b6000612ac360298361306c565b9150612ace82613686565b604082019050919050565b6000612ae6602e8361306c565b9150612af1826136d5565b604082019050919050565b6000612b0960208361306c565b9150612b1482613724565b602082019050919050565b6000612b2c60318361306c565b9150612b378261374d565b604082019050919050565b6000612b4f602c8361306c565b9150612b5a8261379c565b604082019050919050565b6000612b72602f8361306c565b9150612b7d826137eb565b604082019050919050565b6000612b9560218361306c565b9150612ba08261383a565b604082019050919050565b6000612bb860318361306c565b9150612bc382613889565b604082019050919050565b6000612bdb60178361307d565b9150612be6826138d8565b601782019050919050565b6000612bfe60118361307d565b9150612c0982613901565b601182019050919050565b6000612c21602f8361306c565b9150612c2c8261392a565b604082019050919050565b612c4081613211565b82525050565b6000612c52828561294a565b9150612c5e828461294a565b91508190509392505050565b6000612c7582612bce565b9150612c81828561294a565b9150612c8c82612bf1565b9150612c98828461294a565b91508190509392505050565b6000602082019050612cb960008301846128ab565b92915050565b6000608082019050612cd460008301876128ab565b612ce160208301866128ab565b612cee6040830185612c37565b8181036060830152612d0081846128d8565b905095945050505050565b6000602082019050612d2060008301846128ba565b92915050565b6000602082019050612d3b60008301846128c9565b92915050565b60006020820190508181036000830152612d5b8184612911565b905092915050565b60006020820190508181036000830152612d7c8161297b565b9050919050565b60006020820190508181036000830152612d9c8161299e565b9050919050565b60006020820190508181036000830152612dbc816129c1565b9050919050565b60006020820190508181036000830152612ddc816129e4565b9050919050565b60006020820190508181036000830152612dfc81612a07565b9050919050565b60006020820190508181036000830152612e1c81612a2a565b9050919050565b60006020820190508181036000830152612e3c81612a4d565b9050919050565b60006020820190508181036000830152612e5c81612a70565b9050919050565b60006020820190508181036000830152612e7c81612a93565b9050919050565b60006020820190508181036000830152612e9c81612ab6565b9050919050565b60006020820190508181036000830152612ebc81612ad9565b9050919050565b60006020820190508181036000830152612edc81612afc565b9050919050565b60006020820190508181036000830152612efc81612b1f565b9050919050565b60006020820190508181036000830152612f1c81612b42565b9050919050565b60006020820190508181036000830152612f3c81612b65565b9050919050565b60006020820190508181036000830152612f5c81612b88565b9050919050565b60006020820190508181036000830152612f7c81612bab565b9050919050565b60006020820190508181036000830152612f9c81612c14565b9050919050565b6000602082019050612fb86000830184612c37565b92915050565b6000612fc8612fd9565b9050612fd482826132b9565b919050565b6000604051905090565b600067ffffffffffffffff821115612ffe57612ffd6133f1565b5b61300782613420565b9050602081019050919050565b600067ffffffffffffffff82111561302f5761302e6133f1565b5b61303882613420565b9050602081019050919050565b600081519050919050565b600081519050919050565b600082825260208201905092915050565b600082825260208201905092915050565b600081905092915050565b600061309382613211565b915061309e83613211565b9250827fffffffffffffffffffffffffffffffffffffffffffffffffffffffffffffffff038211156130d3576130d2613364565b5b828201905092915050565b60006130e982613211565b91506130f483613211565b92508261310457613103613393565b5b828204905092915050565b600061311a82613211565b915061312583613211565b9250817fffffffffffffffffffffffffffffffffffffffffffffffffffffffffffffffff048311821515161561315e5761315d613364565b5b828202905092915050565b600061317482613211565b915061317f83613211565b92508282101561319257613191613364565b5b828203905092915050565b60006131a8826131f1565b9050919050565b60008115159050919050565b6000819050919050565b60007fffffffff0000000000000000000000000000000000000000000000000000000082169050919050565b600073ffffffffffffffffffffffffffffffffffffffff82169050919050565b6000819050919050565b82818337600083830152505050565b60005b8381101561324857808201518184015260208101905061322d565b83811115613257576000848401525b50505050565b600061326882613211565b9150600082141561327c5761327b613364565b5b600182039050919050565b6000600282049050600182168061329f57607f821691505b602082108114156132b3576132b26133c2565b5b50919050565b6132c282613420565b810181811067ffffffffffffffff821117156132e1576132e06133f1565b5b80604052505050565b60006132f582613211565b91507fffffffffffffffffffffffffffffffffffffffffffffffffffffffffffffffff82141561332857613327613364565b5b600182019050919050565b600061333e82613211565b915061334983613211565b92508261335957613358613393565b5b828206905092915050565b7f4e487b7100000000000000000000000000000000000000000000000000000000600052601160045260246000fd5b7f4e487b7100000000000000000000000000000000000000000000000000000000600052601260045260246000fd5b7f4e487b7100000000000000000000000000000000000000000000000000000000600052602260045260246000fd5b7f4e487b7100000000000000000000000000000000000000000000000000000000600052604160045260246000fd5b6000601f19601f8301169050919050565b7f537472696e67733a20686578206c656e67746820696e73756666696369656e74600082015250565b7f4552433732313a207472616e7366657220746f206e6f6e20455243373231526560008201527f63656976657220696d706c656d656e7465720000000000000000000000000000602082015250565b7f4552433732313a207472616e736665722066726f6d20696e636f72726563742060008201527f6f776e6572000000000000000000000000000000000000000000000000000000602082015250565b7f4552433732313a20746f6b656e20616c7265616479206d696e74656400000000600082015250565b7f4552433732313a207472616e7366657220746f20746865207a65726f2061646460008201527f7265737300000000000000000000000000000000000000000000000000000000602082015250565b7f4552433732313a20617070726f766520746f2063616c6c657200000000000000600082015250565b7f4552433732313a206f70657261746f7220717565727920666f72206e6f6e657860008201527f697374656e7420746f6b656e0000000000000000000000000000000000000000602082015250565b7f4552433732313a20617070726f76652063616c6c6572206973206e6f74206f7760008201527f6e6572206e6f7220617070726f76656420666f7220616c6c0000000000000000602082015250565b7f4552433732313a2062616c616e636520717565727920666f7220746865207a6560008201527f726f206164647265737300000000000000000000000000000000000000000000602082015250565b7f4552433732313a206f776e657220717565727920666f72206e6f6e657869737460008201527f656e7420746f6b656e0000000000000000000000000000000000000000000000602082015250565b7f45524337323155524953746f726167653a2055524920736574206f66206e6f6e60008201527f6578697374656e7420746f6b656e000000000000000000000000000000000000602082015250565b7f4552433732313a206d696e7420746f20746865207a65726f2061646472657373600082015250565b7f45524337323155524953746f726167653a2055524920717565727920666f722060008201527f6e6f6e6578697374656e7420746f6b656e000000000000000000000000000000602082015250565b7f4552433732313a20617070726f76656420717565727920666f72206e6f6e657860008201527f697374656e7420746f6b656e0000000000000000000000000000000000000000602082015250565b7f4552433732314d657461646174613a2055524920717565727920666f72206e6f60008201527f6e6578697374656e7420746f6b656e0000000000000000000000000000000000602082015250565b7f4552433732313a20617070726f76616c20746f2063757272656e74206f776e6560008201527f7200000000000000000000000000000000000000000000000000000000000000602082015250565b7f4552433732313a207472616e736665722063616c6c6572206973206e6f74206f60008201527f776e6572206e6f7220617070726f766564000000000000000000000000000000602082015250565b7f416363657373436f6e74726f6c3a206163636f756e7420000000000000000000600082015250565b7f206973206d697373696e6720726f6c6520000000000000000000000000000000600082015250565b7f416363657373436f6e74726f6c3a2063616e206f6e6c792072656e6f756e636560008201527f20726f6c657320666f722073656c660000000000000000000000000000000000602082015250565b6139828161319d565b811461398d57600080fd5b50565b613999816131af565b81146139a457600080fd5b50565b6139b0816131bb565b81146139bb57600080fd5b50565b6139c7816131c5565b81146139d257600080fd5b50565b6139de81613211565b81146139e957600080fd5b5056fea26469706673582212208e7b016542908f5ee2e422f7094005e30125a8588d8adfc497bb5ec60f16b04764736f6c63430008040033",
  "linkReferences": {},
  "deployedLinkReferences": {}
}