{
  "_format": "hh-sol-artifact-1",
  "contractName": "ViewRecord",
  "sourceName": "contracts/ViewRecord.sol",
  "abi": [
    {
      "inputs": [],
      "stateMutability": "nonpayable",
      "type": "constructor"
    },
    {
      "anonymous": false,
      "inputs": [
        {
          "indexed": true,
          "internalType": "address",
          "name": "owner",
          "type": "address"
        },
        {
          "indexed": true,
          "internalType": "address",
          "name": "approved",
          "type": "address"
        },
        {
          "indexed": true,
          "internalType": "uint256",
          "name": "tokenId",
          "type": "uint256"
        }
      ],
      "name": "Approval",
      "type": "event"
    },
    {
      "anonymous": false,
      "inputs": [
        {
          "indexed": true,
          "internalType": "address",
          "name": "owner",
          "type": "address"
        },
        {
          "indexed": true,
          "internalType": "address",
          "name": "operator",
          "type": "address"
        },
        {
          "indexed": false,
          "internalType": "bool",
          "name": "approved",
          "type": "bool"
        }
      ],
      "name": "ApprovalForAll",
      "type": "event"
    },
    {
      "anonymous": false,
      "inputs": [
        {
          "indexed": false,
          "internalType": "uint256",
          "name": "itemId",
          "type": "uint256"
        },
        {
          "indexed": true,
          "internalType": "address",
          "name": "nft",
          "type": "address"
        },
        {
          "indexed": false,
          "internalType": "uint256",
          "name": "tokenId",
          "type": "uint256"
        },
        {
          "indexed": false,
          "internalType": "string",
          "name": "description",
          "type": "string"
        },
        {
          "indexed": false,
          "internalType": "string",
          "name": "nftName",
          "type": "string"
        },
        {
          "indexed": true,
          "internalType": "address",
          "name": "creator",
          "type": "address"
        }
      ],
      "name": "Offered",
      "type": "event"
    },
    {
      "anonymous": false,
      "inputs": [
        {
          "indexed": true,
          "internalType": "bytes32",
          "name": "role",
          "type": "bytes32"
        },
        {
          "indexed": true,
          "internalType": "bytes32",
          "name": "previousAdminRole",
          "type": "bytes32"
        },
        {
          "indexed": true,
          "internalType": "bytes32",
          "name": "newAdminRole",
          "type": "bytes32"
        }
      ],
      "name": "RoleAdminChanged",
      "type": "event"
    },
    {
      "anonymous": false,
      "inputs": [
        {
          "indexed": true,
          "internalType": "bytes32",
          "name": "role",
          "type": "bytes32"
        },
        {
          "indexed": true,
          "internalType": "address",
          "name": "account",
          "type": "address"
        },
        {
          "indexed": true,
          "internalType": "address",
          "name": "sender",
          "type": "address"
        }
      ],
      "name": "RoleGranted",
      "type": "event"
    },
    {
      "anonymous": false,
      "inputs": [
        {
          "indexed": true,
          "internalType": "bytes32",
          "name": "role",
          "type": "bytes32"
        },
        {
          "indexed": true,
          "internalType": "address",
          "name": "account",
          "type": "address"
        },
        {
          "indexed": true,
          "internalType": "address",
          "name": "sender",
          "type": "address"
        }
      ],
      "name": "RoleRevoked",
      "type": "event"
    },
    {
      "anonymous": false,
      "inputs": [
        {
          "indexed": true,
          "internalType": "address",
          "name": "from",
          "type": "address"
        },
        {
          "indexed": true,
          "internalType": "address",
          "name": "to",
          "type": "address"
        },
        {
          "indexed": true,
          "internalType": "uint256",
          "name": "tokenId",
          "type": "uint256"
        }
      ],
      "name": "Transfer",
      "type": "event"
    },
    {
      "inputs": [],
      "name": "DEFAULT_ADMIN_ROLE",
      "outputs": [
        {
          "internalType": "bytes32",
          "name": "",
          "type": "bytes32"
        }
      ],
      "stateMutability": "view",
      "type": "function"
    },
    {
      "inputs": [],
      "name": "PATIENT_ROLE",
      "outputs": [
        {
          "internalType": "bytes32",
          "name": "",
          "type": "bytes32"
        }
      ],
      "stateMutability": "view",
      "type": "function"
    },
    {
      "inputs": [],
      "name": "VIEWER_ROLE",
      "outputs": [
        {
          "internalType": "bytes32",
          "name": "",
          "type": "bytes32"
        }
      ],
      "stateMutability": "view",
      "type": "function"
    },
    {
      "inputs": [
        {
          "internalType": "address",
          "name": "to",
          "type": "address"
        },
        {
          "internalType": "uint256",
          "name": "tokenId",
          "type": "uint256"
        }
      ],
      "name": "approve",
      "outputs": [],
      "stateMutability": "nonpayable",
      "type": "function"
    },
    {
      "inputs": [
        {
          "internalType": "address",
          "name": "owner",
          "type": "address"
        }
      ],
      "name": "balanceOf",
      "outputs": [
        {
          "internalType": "uint256",
          "name": "",
          "type": "uint256"
        }
      ],
      "stateMutability": "view",
      "type": "function"
    },
    {
      "inputs": [
        {
          "internalType": "uint256",
          "name": "tokenId",
          "type": "uint256"
        }
      ],
      "name": "getApproved",
      "outputs": [
        {
          "internalType": "address",
          "name": "",
          "type": "address"
        }
      ],
      "stateMutability": "view",
      "type": "function"
    },
    {
      "inputs": [
        {
          "internalType": "bytes32",
          "name": "role",
          "type": "bytes32"
        }
      ],
      "name": "getRoleAdmin",
      "outputs": [
        {
          "internalType": "bytes32",
          "name": "",
          "type": "bytes32"
        }
      ],
      "stateMutability": "view",
      "type": "function"
    },
    {
      "inputs": [
        {
          "internalType": "address",
          "name": "viewer",
          "type": "address"
        }
      ],
      "name": "giveViewPermission",
      "outputs": [],
      "stateMutability": "nonpayable",
      "type": "function"
    },
    {
      "inputs": [
        {
          "internalType": "bytes32",
          "name": "role",
          "type": "bytes32"
        },
        {
          "internalType": "address",
          "name": "account",
          "type": "address"
        }
      ],
      "name": "grantRole",
      "outputs": [],
      "stateMutability": "nonpayable",
      "type": "function"
    },
    {
      "inputs": [
        {
          "internalType": "bytes32",
          "name": "role",
          "type": "bytes32"
        },
        {
          "internalType": "address",
          "name": "account",
          "type": "address"
        }
      ],
      "name": "hasRole",
      "outputs": [
        {
          "internalType": "bool",
          "name": "",
          "type": "bool"
        }
      ],
      "stateMutability": "view",
      "type": "function"
    },
    {
      "inputs": [
        {
          "internalType": "address",
          "name": "owner",
          "type": "address"
        },
        {
          "internalType": "address",
          "name": "operator",
          "type": "address"
        }
      ],
      "name": "isApprovedForAll",
      "outputs": [
        {
          "internalType": "bool",
          "name": "",
          "type": "bool"
        }
      ],
      "stateMutability": "view",
      "type": "function"
    },
    {
      "inputs": [],
      "name": "itemCount",
      "outputs": [
        {
          "internalType": "uint256",
          "name": "",
          "type": "uint256"
        }
      ],
      "stateMutability": "view",
      "type": "function"
    },
    {
      "inputs": [
        {
          "internalType": "uint256",
          "name": "",
          "type": "uint256"
        }
      ],
      "name": "items",
      "outputs": [
        {
          "internalType": "uint256",
          "name": "itemId",
          "type": "uint256"
        },
        {
          "internalType": "contract IERC721",
          "name": "nft",
          "type": "address"
        },
        {
          "internalType": "uint256",
          "name": "tokenId",
          "type": "uint256"
        },
        {
          "internalType": "string",
          "name": "description",
          "type": "string"
        },
        {
          "internalType": "string",
          "name": "nftName",
          "type": "string"
        },
        {
          "internalType": "address payable",
          "name": "creator",
          "type": "address"
        }
      ],
      "stateMutability": "view",
      "type": "function"
    },
    {
      "inputs": [
        {
          "internalType": "contract IERC721",
          "name": "_nft",
          "type": "address"
        },
        {
          "internalType": "uint256",
          "name": "_tokenId",
          "type": "uint256"
        },
        {
          "internalType": "string",
          "name": "_description",
          "type": "string"
        },
        {
          "internalType": "string",
          "name": "_recordName",
          "type": "string"
        }
      ],
      "name": "makeItem",
      "outputs": [
        {
          "internalType": "uint256",
          "name": "_tokenCount",
          "type": "uint256"
        }
      ],
      "stateMutability": "nonpayable",
      "type": "function"
    },
    {
      "inputs": [],
      "name": "name",
      "outputs": [
        {
          "internalType": "string",
          "name": "",
          "type": "string"
        }
      ],
      "stateMutability": "view",
      "type": "function"
    },
    {
      "inputs": [
        {
          "internalType": "uint256",
          "name": "tokenId",
          "type": "uint256"
        }
      ],
      "name": "ownerOf",
      "outputs": [
        {
          "internalType": "address",
          "name": "",
          "type": "address"
        }
      ],
      "stateMutability": "view",
      "type": "function"
    },
    {
      "inputs": [
        {
          "internalType": "bytes32",
          "name": "role",
          "type": "bytes32"
        },
        {
          "internalType": "address",
          "name": "account",
          "type": "address"
        }
      ],
      "name": "renounceRole",
      "outputs": [],
      "stateMutability": "nonpayable",
      "type": "function"
    },
    {
      "inputs": [
        {
          "internalType": "bytes32",
          "name": "role",
          "type": "bytes32"
        },
        {
          "internalType": "address",
          "name": "account",
          "type": "address"
        }
      ],
      "name": "revokeRole",
      "outputs": [],
      "stateMutability": "nonpayable",
      "type": "function"
    },
    {
      "inputs": [
        {
          "internalType": "address",
          "name": "from",
          "type": "address"
        },
        {
          "internalType": "address",
          "name": "to",
          "type": "address"
        },
        {
          "internalType": "uint256",
          "name": "tokenId",
          "type": "uint256"
        }
      ],
      "name": "safeTransferFrom",
      "outputs": [],
      "stateMutability": "nonpayable",
      "type": "function"
    },
    {
      "inputs": [
        {
          "internalType": "address",
          "name": "from",
          "type": "address"
        },
        {
          "internalType": "address",
          "name": "to",
          "type": "address"
        },
        {
          "internalType": "uint256",
          "name": "tokenId",
          "type": "uint256"
        },
        {
          "internalType": "bytes",
          "name": "_data",
          "type": "bytes"
        }
      ],
      "name": "safeTransferFrom",
      "outputs": [],
      "stateMutability": "nonpayable",
      "type": "function"
    },
    {
      "inputs": [
        {
          "internalType": "address",
          "name": "operator",
          "type": "address"
        },
        {
          "internalType": "bool",
          "name": "approved",
          "type": "bool"
        }
      ],
      "name": "setApprovalForAll",
      "outputs": [],
      "stateMutability": "nonpayable",
      "type": "function"
    },
    {
      "inputs": [
        {
          "internalType": "bytes4",
          "name": "interfaceId",
          "type": "bytes4"
        }
      ],
      "name": "supportsInterface",
      "outputs": [
        {
          "internalType": "bool",
          "name": "",
          "type": "bool"
        }
      ],
      "stateMutability": "view",
      "type": "function"
    },
    {
      "inputs": [],
      "name": "symbol",
      "outputs": [
        {
          "internalType": "string",
          "name": "",
          "type": "string"
        }
      ],
      "stateMutability": "view",
      "type": "function"
    },
    {
      "inputs": [
        {
          "internalType": "uint256",
          "name": "tokenId",
          "type": "uint256"
        }
      ],
      "name": "tokenURI",
      "outputs": [
        {
          "internalType": "string",
          "name": "",
          "type": "string"
        }
      ],
      "stateMutability": "view",
      "type": "function"
    },
    {
      "inputs": [
        {
          "internalType": "address",
          "name": "from",
          "type": "address"
        },
        {
          "internalType": "address",
          "name": "to",
          "type": "address"
        },
        {
          "internalType": "uint256",
          "name": "tokenId",
          "type": "uint256"
        }
      ],
      "name": "transferFrom",
      "outputs": [],
      "stateMutability": "nonpayable",
      "type": "function"
    }
  ],
  "bytecode": "0x60806040523480156200001157600080fd5b506040518060400160405280600681526020017f4d794d45444900000000000000000000000000000000000000000000000000008152506040518060400160405280600481526020017f4d544b4e000000000000000000000000000000000000000000000000000000008152508160009080519060200190620000969291906200027a565b508060019080519060200190620000af9291906200027a565b505050620000e47f72606200fac42b7dc86b75901d61ecfab2a4a1a6eded478b97a428094891abed33620000ff60201b60201c565b620000f96000801b33620000ff60201b60201c565b6200038f565b6200011182826200011560201b60201c565b5050565b6200012782826200020760201b60201c565b620002035760016006600084815260200190815260200160002060000160008373ffffffffffffffffffffffffffffffffffffffff1673ffffffffffffffffffffffffffffffffffffffff16815260200190815260200160002060006101000a81548160ff021916908315150217905550620001a86200027260201b60201c565b73ffffffffffffffffffffffffffffffffffffffff168173ffffffffffffffffffffffffffffffffffffffff16837f2f8788117e7eff1d82e926ec794901d17c78024a50270940304540a733656f0d60405160405180910390a45b5050565b60006006600084815260200190815260200160002060000160008373ffffffffffffffffffffffffffffffffffffffff1673ffffffffffffffffffffffffffffffffffffffff16815260200190815260200160002060009054906101000a900460ff16905092915050565b600033905090565b82805462000288906200032a565b90600052602060002090601f016020900481019282620002ac5760008555620002f8565b82601f10620002c757805160ff1916838001178555620002f8565b82800160010185558215620002f8579182015b82811115620002f7578251825591602001919060010190620002da565b5b5090506200030791906200030b565b5090565b5b80821115620003265760008160009055506001016200030c565b5090565b600060028204905060018216806200034357607f821691505b602082108114156200035a576200035962000360565b5b50919050565b7f4e487b7100000000000000000000000000000000000000000000000000000000600052602260045260246000fd5b6138a0806200039f6000396000f3fe608060405234801561001057600080fd5b50600436106101735760003560e01c80636bfb0d01116100de578063ac5cb97d11610097578063c87b56dd11610071578063c87b56dd14610475578063d547741f146104a5578063e8c3b6a3146104c1578063e985e9c5146104dd57610173565b8063ac5cb97d14610406578063b88d4fde14610424578063bfb231d21461044057610173565b80636bfb0d011461033057806370a082311461034e57806391d148541461037e57806395d89b41146103ae578063a217fddf146103cc578063a22cb465146103ea57610173565b80632f2ff15d116101305780632f2ff15d1461025e57806336568abe1461027a5780633d76657e1461029657806342842e0e146102c657806350219eaf146102e25780636352211e1461030057610173565b806301ffc9a71461017857806306fdde03146101a8578063081812fc146101c6578063095ea7b3146101f657806323b872dd14610212578063248a9ca31461022e575b600080fd5b610192600480360381019061018d91906126a1565b61050d565b60405161019f9190612bd8565b60405180910390f35b6101b061051f565b6040516101bd9190612c0e565b60405180910390f35b6101e060048036038101906101db9190612786565b6105b1565b6040516101ed9190612b3a565b60405180910390f35b610210600480360381019061020b9190612600565b610636565b005b61022c600480360381019061022791906124fa565b61074e565b005b6102486004803603810190610243919061263c565b6107ae565b6040516102559190612bf3565b60405180910390f35b61027860048036038101906102739190612665565b6107ce565b005b610294600480360381019061028f9190612665565b6107f7565b005b6102b060048036038101906102ab91906126f3565b61087a565b6040516102bd9190612df0565b60405180910390f35b6102e060048036038101906102db91906124fa565b610b3b565b005b6102ea610b5b565b6040516102f79190612bf3565b60405180910390f35b61031a60048036038101906103159190612786565b610b7f565b6040516103279190612b3a565b60405180910390f35b610338610c31565b6040516103459190612df0565b60405180910390f35b61036860048036038101906103639190612495565b610c37565b6040516103759190612df0565b60405180910390f35b61039860048036038101906103939190612665565b610cef565b6040516103a59190612bd8565b60405180910390f35b6103b6610d5a565b6040516103c39190612c0e565b60405180910390f35b6103d4610dec565b6040516103e19190612bf3565b60405180910390f35b61040460048036038101906103ff91906125c4565b610df3565b005b61040e610e09565b60405161041b9190612bf3565b60405180910390f35b61043e60048036038101906104399190612549565b610e2d565b005b61045a60048036038101906104559190612786565b610e8f565b60405161046c96959493929190612e0b565b60405180910390f35b61048f600480360381019061048a9190612786565b61101b565b60405161049c9190612c0e565b60405180910390f35b6104bf60048036038101906104ba9190612665565b6110c2565b005b6104db60048036038101906104d69190612495565b6110eb565b005b6104f760048036038101906104f291906124be565b611118565b6040516105049190612bd8565b60405180910390f35b6000610518826111ac565b9050919050565b60606000805461052e906131de565b80601f016020809104026020016040519081016040528092919081815260200182805461055a906131de565b80156105a75780601f1061057c576101008083540402835291602001916105a7565b820191906000526020600020905b81548152906001019060200180831161058a57829003601f168201915b5050505050905090565b60006105bc82611226565b6105fb576040517f08c379a00000000000000000000000000000000000000000000000000000000081526004016105f290612d50565b60405180910390fd5b6004600083815260200190815260200160002060009054906101000a900473ffffffffffffffffffffffffffffffffffffffff169050919050565b600061064182610b7f565b90508073ffffffffffffffffffffffffffffffffffffffff168373ffffffffffffffffffffffffffffffffffffffff1614156106b2576040517f08c379a00000000000000000000000000000000000000000000000000000000081526004016106a990612d90565b60405180910390fd5b8073ffffffffffffffffffffffffffffffffffffffff166106d1611292565b73ffffffffffffffffffffffffffffffffffffffff16148061070057506106ff816106fa611292565b611118565b5b61073f576040517f08c379a000000000000000000000000000000000000000000000000000000000815260040161073690612cf0565b60405180910390fd5b610749838361129a565b505050565b61075f610759611292565b82611353565b61079e576040517f08c379a000000000000000000000000000000000000000000000000000000000815260040161079590612db0565b60405180910390fd5b6107a9838383611431565b505050565b600060066000838152602001908152602001600020600101549050919050565b6107d7826107ae565b6107e8816107e3611292565b611698565b6107f28383611735565b505050565b6107ff611292565b73ffffffffffffffffffffffffffffffffffffffff168173ffffffffffffffffffffffffffffffffffffffff161461086c576040517f08c379a000000000000000000000000000000000000000000000000000000000815260040161086390612dd0565b60405180910390fd5b6108768282611816565b5050565b60006108a67f72606200fac42b7dc86b75901d61ecfab2a4a1a6eded478b97a428094891abed33610cef565b806108d757506108d67f4e8c8e9ca39468bb90c81b80f979119441019fdac7cbbbd930e0a604f8777d1d33610cef565b5b15610b2957600860008154809291906108ef90613241565b91905055508473ffffffffffffffffffffffffffffffffffffffff166323b872dd3330876040518463ffffffff1660e01b815260040161093193929190612b55565b600060405180830381600087803b15801561094b57600080fd5b505af115801561095f573d6000803e3d6000fd5b505050506040518060c0016040528060085481526020018673ffffffffffffffffffffffffffffffffffffffff1681526020018581526020018481526020018381526020013373ffffffffffffffffffffffffffffffffffffffff168152506007600060085481526020019081526020016000206000820151816000015560208201518160010160006101000a81548173ffffffffffffffffffffffffffffffffffffffff021916908373ffffffffffffffffffffffffffffffffffffffff160217905550604082015181600201556060820151816003019080519060200190610a4a92919061228f565b506080820151816004019080519060200190610a6792919061228f565b5060a08201518160050160006101000a81548173ffffffffffffffffffffffffffffffffffffffff021916908373ffffffffffffffffffffffffffffffffffffffff1602179055509050503373ffffffffffffffffffffffffffffffffffffffff168573ffffffffffffffffffffffffffffffffffffffff167ff7e0eb963f04b453a59fec6e56504fba199d858dd5000be2c5641af8286dd201600854878787604051610b179493929190612e7a565b60405180910390a36008549050610b33565b610b32336110eb565b5b949350505050565b610b5683838360405180602001604052806000815250610e2d565b505050565b7f4e8c8e9ca39468bb90c81b80f979119441019fdac7cbbbd930e0a604f8777d1d81565b6000806002600084815260200190815260200160002060009054906101000a900473ffffffffffffffffffffffffffffffffffffffff169050600073ffffffffffffffffffffffffffffffffffffffff168173ffffffffffffffffffffffffffffffffffffffff161415610c28576040517f08c379a0000000000000000000000000000000000000000000000000000000008152600401610c1f90612d30565b60405180910390fd5b80915050919050565b60085481565b60008073ffffffffffffffffffffffffffffffffffffffff168273ffffffffffffffffffffffffffffffffffffffff161415610ca8576040517f08c379a0000000000000000000000000000000000000000000000000000000008152600401610c9f90612d10565b60405180910390fd5b600360008373ffffffffffffffffffffffffffffffffffffffff1673ffffffffffffffffffffffffffffffffffffffff168152602001908152602001600020549050919050565b60006006600084815260200190815260200160002060000160008373ffffffffffffffffffffffffffffffffffffffff1673ffffffffffffffffffffffffffffffffffffffff16815260200190815260200160002060009054906101000a900460ff16905092915050565b606060018054610d69906131de565b80601f0160208091040260200160405190810160405280929190818152602001828054610d95906131de565b8015610de25780601f10610db757610100808354040283529160200191610de2565b820191906000526020600020905b815481529060010190602001808311610dc557829003601f168201915b5050505050905090565b6000801b81565b610e05610dfe611292565b83836118f8565b5050565b7f72606200fac42b7dc86b75901d61ecfab2a4a1a6eded478b97a428094891abed81565b610e3e610e38611292565b83611353565b610e7d576040517f08c379a0000000000000000000000000000000000000000000000000000000008152600401610e7490612db0565b60405180910390fd5b610e8984848484611a65565b50505050565b60076020528060005260406000206000915090508060000154908060010160009054906101000a900473ffffffffffffffffffffffffffffffffffffffff1690806002015490806003018054610ee4906131de565b80601f0160208091040260200160405190810160405280929190818152602001828054610f10906131de565b8015610f5d5780601f10610f3257610100808354040283529160200191610f5d565b820191906000526020600020905b815481529060010190602001808311610f4057829003601f168201915b505050505090806004018054610f72906131de565b80601f0160208091040260200160405190810160405280929190818152602001828054610f9e906131de565b8015610feb5780601f10610fc057610100808354040283529160200191610feb565b820191906000526020600020905b815481529060010190602001808311610fce57829003601f168201915b5050505050908060050160009054906101000a900473ffffffffffffffffffffffffffffffffffffffff16905086565b606061102682611226565b611065576040517f08c379a000000000000000000000000000000000000000000000000000000000815260040161105c90612d70565b60405180910390fd5b600061106f611ac1565b9050600081511161108f57604051806020016040528060008152506110ba565b8061109984611ad8565b6040516020016110aa929190612adc565b6040516020818303038152906040525b915050919050565b6110cb826107ae565b6110dc816110d7611292565b611698565b6110e68383611816565b505050565b6111157f4e8c8e9ca39468bb90c81b80f979119441019fdac7cbbbd930e0a604f8777d1d82611735565b50565b6000600560008473ffffffffffffffffffffffffffffffffffffffff1673ffffffffffffffffffffffffffffffffffffffff16815260200190815260200160002060008373ffffffffffffffffffffffffffffffffffffffff1673ffffffffffffffffffffffffffffffffffffffff16815260200190815260200160002060009054906101000a900460ff16905092915050565b60007f7965db0b000000000000000000000000000000000000000000000000000000007bffffffffffffffffffffffffffffffffffffffffffffffffffffffff1916827bffffffffffffffffffffffffffffffffffffffffffffffffffffffff1916148061121f575061121e82611c85565b5b9050919050565b60008073ffffffffffffffffffffffffffffffffffffffff166002600084815260200190815260200160002060009054906101000a900473ffffffffffffffffffffffffffffffffffffffff1673ffffffffffffffffffffffffffffffffffffffff1614159050919050565b600033905090565b816004600083815260200190815260200160002060006101000a81548173ffffffffffffffffffffffffffffffffffffffff021916908373ffffffffffffffffffffffffffffffffffffffff160217905550808273ffffffffffffffffffffffffffffffffffffffff1661130d83610b7f565b73ffffffffffffffffffffffffffffffffffffffff167f8c5be1e5ebec7d5bd14f71427d1e84f3dd0314c0f7b2291e5b200ac8c7c3b92560405160405180910390a45050565b600061135e82611226565b61139d576040517f08c379a000000000000000000000000000000000000000000000000000000000815260040161139490612cd0565b60405180910390fd5b60006113a883610b7f565b90508073ffffffffffffffffffffffffffffffffffffffff168473ffffffffffffffffffffffffffffffffffffffff16148061141757508373ffffffffffffffffffffffffffffffffffffffff166113ff846105b1565b73ffffffffffffffffffffffffffffffffffffffff16145b8061142857506114278185611118565b5b91505092915050565b8273ffffffffffffffffffffffffffffffffffffffff1661145182610b7f565b73ffffffffffffffffffffffffffffffffffffffff16146114a7576040517f08c379a000000000000000000000000000000000000000000000000000000000815260040161149e90612c70565b60405180910390fd5b600073ffffffffffffffffffffffffffffffffffffffff168273ffffffffffffffffffffffffffffffffffffffff161415611517576040517f08c379a000000000000000000000000000000000000000000000000000000000815260040161150e90612c90565b60405180910390fd5b611522838383611d67565b61152d60008261129a565b6001600360008573ffffffffffffffffffffffffffffffffffffffff1673ffffffffffffffffffffffffffffffffffffffff168152602001908152602001600020600082825461157d9190613078565b925050819055506001600360008473ffffffffffffffffffffffffffffffffffffffff1673ffffffffffffffffffffffffffffffffffffffff16815260200190815260200160002060008282546115d49190612f97565b92505081905550816002600083815260200190815260200160002060006101000a81548173ffffffffffffffffffffffffffffffffffffffff021916908373ffffffffffffffffffffffffffffffffffffffff160217905550808273ffffffffffffffffffffffffffffffffffffffff168473ffffffffffffffffffffffffffffffffffffffff167fddf252ad1be2c89b69c2b068fc378daa952ba7f163c4a11628f55a4df523b3ef60405160405180910390a4611693838383611d6c565b505050565b6116a28282610cef565b611731576116c78173ffffffffffffffffffffffffffffffffffffffff166014611d71565b6116d58360001c6020611d71565b6040516020016116e6929190612b00565b6040516020818303038152906040526040517f08c379a00000000000000000000000000000000000000000000000000000000081526004016117289190612c0e565b60405180910390fd5b5050565b61173f8282610cef565b6118125760016006600084815260200190815260200160002060000160008373ffffffffffffffffffffffffffffffffffffffff1673ffffffffffffffffffffffffffffffffffffffff16815260200190815260200160002060006101000a81548160ff0219169083151502179055506117b7611292565b73ffffffffffffffffffffffffffffffffffffffff168173ffffffffffffffffffffffffffffffffffffffff16837f2f8788117e7eff1d82e926ec794901d17c78024a50270940304540a733656f0d60405160405180910390a45b5050565b6118208282610cef565b156118f45760006006600084815260200190815260200160002060000160008373ffffffffffffffffffffffffffffffffffffffff1673ffffffffffffffffffffffffffffffffffffffff16815260200190815260200160002060006101000a81548160ff021916908315150217905550611899611292565b73ffffffffffffffffffffffffffffffffffffffff168173ffffffffffffffffffffffffffffffffffffffff16837ff6391f5c32d9c69d2a47ea670b442974b53935d1edc7fd64eb21e047a839171b60405160405180910390a45b5050565b8173ffffffffffffffffffffffffffffffffffffffff168373ffffffffffffffffffffffffffffffffffffffff161415611967576040517f08c379a000000000000000000000000000000000000000000000000000000000815260040161195e90612cb0565b60405180910390fd5b80600560008573ffffffffffffffffffffffffffffffffffffffff1673ffffffffffffffffffffffffffffffffffffffff16815260200190815260200160002060008473ffffffffffffffffffffffffffffffffffffffff1673ffffffffffffffffffffffffffffffffffffffff16815260200190815260200160002060006101000a81548160ff0219169083151502179055508173ffffffffffffffffffffffffffffffffffffffff168373ffffffffffffffffffffffffffffffffffffffff167f17307eab39ab6107e8899845ad3d59bd9653f200f220920489ca2b5937696c3183604051611a589190612bd8565b60405180910390a3505050565b611a70848484611431565b611a7c8484848461206b565b611abb576040517f08c379a0000000000000000000000000000000000000000000000000000000008152600401611ab290612c50565b60405180910390fd5b50505050565b606060405180602001604052806000815250905090565b60606000821415611b20576040518060400160405280600181526020017f30000000000000000000000000000000000000000000000000000000000000008152509050611c80565b600082905060005b60008214611b52578080611b3b90613241565b915050600a82611b4b9190612fed565b9150611b28565b60008167ffffffffffffffff811115611b94577f4e487b7100000000000000000000000000000000000000000000000000000000600052604160045260246000fd5b6040519080825280601f01601f191660200182016040528015611bc65781602001600182028036833780820191505090505b5090505b60008514611c7957600182611bdf9190613078565b9150600a85611bee919061328a565b6030611bfa9190612f97565b60f81b818381518110611c36577f4e487b7100000000000000000000000000000000000000000000000000000000600052603260045260246000fd5b60200101907effffffffffffffffffffffffffffffffffffffffffffffffffffffffffffff1916908160001a905350600a85611c729190612fed565b9450611bca565b8093505050505b919050565b60007f80ac58cd000000000000000000000000000000000000000000000000000000007bffffffffffffffffffffffffffffffffffffffffffffffffffffffff1916827bffffffffffffffffffffffffffffffffffffffffffffffffffffffff19161480611d5057507f5b5e139f000000000000000000000000000000000000000000000000000000007bffffffffffffffffffffffffffffffffffffffffffffffffffffffff1916827bffffffffffffffffffffffffffffffffffffffffffffffffffffffff1916145b80611d605750611d5f82612202565b5b9050919050565b505050565b505050565b606060006002836002611d84919061301e565b611d8e9190612f97565b67ffffffffffffffff811115611dcd577f4e487b7100000000000000000000000000000000000000000000000000000000600052604160045260246000fd5b6040519080825280601f01601f191660200182016040528015611dff5781602001600182028036833780820191505090505b5090507f300000000000000000000000000000000000000000000000000000000000000081600081518110611e5d577f4e487b7100000000000000000000000000000000000000000000000000000000600052603260045260246000fd5b60200101907effffffffffffffffffffffffffffffffffffffffffffffffffffffffffffff1916908160001a9053507f780000000000000000000000000000000000000000000000000000000000000081600181518110611ee7577f4e487b7100000000000000000000000000000000000000000000000000000000600052603260045260246000fd5b60200101907effffffffffffffffffffffffffffffffffffffffffffffffffffffffffffff1916908160001a90535060006001846002611f27919061301e565b611f319190612f97565b90505b600181111561201d577f3031323334353637383961626364656600000000000000000000000000000000600f861660108110611f99577f4e487b7100000000000000000000000000000000000000000000000000000000600052603260045260246000fd5b1a60f81b828281518110611fd6577f4e487b7100000000000000000000000000000000000000000000000000000000600052603260045260246000fd5b60200101907effffffffffffffffffffffffffffffffffffffffffffffffffffffffffffff1916908160001a905350600485901c945080612016906131b4565b9050611f34565b5060008414612061576040517f08c379a000000000000000000000000000000000000000000000000000000000815260040161205890612c30565b60405180910390fd5b8091505092915050565b600061208c8473ffffffffffffffffffffffffffffffffffffffff1661226c565b156121f5578373ffffffffffffffffffffffffffffffffffffffff1663150b7a026120b5611292565b8786866040518563ffffffff1660e01b81526004016120d79493929190612b8c565b602060405180830381600087803b1580156120f157600080fd5b505af192505050801561212257506040513d601f19601f8201168201806040525081019061211f91906126ca565b60015b6121a5573d8060008114612152576040519150601f19603f3d011682016040523d82523d6000602084013e612157565b606091505b5060008151141561219d576040517f08c379a000000000000000000000000000000000000000000000000000000000815260040161219490612c50565b60405180910390fd5b805181602001fd5b63150b7a0260e01b7bffffffffffffffffffffffffffffffffffffffffffffffffffffffff1916817bffffffffffffffffffffffffffffffffffffffffffffffffffffffff1916149150506121fa565b600190505b949350505050565b60007f01ffc9a7000000000000000000000000000000000000000000000000000000007bffffffffffffffffffffffffffffffffffffffffffffffffffffffff1916827bffffffffffffffffffffffffffffffffffffffffffffffffffffffff1916149050919050565b6000808273ffffffffffffffffffffffffffffffffffffffff163b119050919050565b82805461229b906131de565b90600052602060002090601f0160209004810192826122bd5760008555612304565b82601f106122d657805160ff1916838001178555612304565b82800160010185558215612304579182015b828111156123035782518255916020019190600101906122e8565b5b5090506123119190612315565b5090565b5b8082111561232e576000816000905550600101612316565b5090565b600061234561234084612ef2565b612ecd565b90508281526020810184848401111561235d57600080fd5b612368848285613172565b509392505050565b600061238361237e84612f23565b612ecd565b90508281526020810184848401111561239b57600080fd5b6123a6848285613172565b509392505050565b6000813590506123bd816137e0565b92915050565b6000813590506123d2816137f7565b92915050565b6000813590506123e78161380e565b92915050565b6000813590506123fc81613825565b92915050565b60008151905061241181613825565b92915050565b600082601f83011261242857600080fd5b8135612438848260208601612332565b91505092915050565b6000813590506124508161383c565b92915050565b600082601f83011261246757600080fd5b8135612477848260208601612370565b91505092915050565b60008135905061248f81613853565b92915050565b6000602082840312156124a757600080fd5b60006124b5848285016123ae565b91505092915050565b600080604083850312156124d157600080fd5b60006124df858286016123ae565b92505060206124f0858286016123ae565b9150509250929050565b60008060006060848603121561250f57600080fd5b600061251d868287016123ae565b935050602061252e868287016123ae565b925050604061253f86828701612480565b9150509250925092565b6000806000806080858703121561255f57600080fd5b600061256d878288016123ae565b945050602061257e878288016123ae565b935050604061258f87828801612480565b925050606085013567ffffffffffffffff8111156125ac57600080fd5b6125b887828801612417565b91505092959194509250565b600080604083850312156125d757600080fd5b60006125e5858286016123ae565b92505060206125f6858286016123c3565b9150509250929050565b6000806040838503121561261357600080fd5b6000612621858286016123ae565b925050602061263285828601612480565b9150509250929050565b60006020828403121561264e57600080fd5b600061265c848285016123d8565b91505092915050565b6000806040838503121561267857600080fd5b6000612686858286016123d8565b9250506020612697858286016123ae565b9150509250929050565b6000602082840312156126b357600080fd5b60006126c1848285016123ed565b91505092915050565b6000602082840312156126dc57600080fd5b60006126ea84828501612402565b91505092915050565b6000806000806080858703121561270957600080fd5b600061271787828801612441565b945050602061272887828801612480565b935050604085013567ffffffffffffffff81111561274557600080fd5b61275187828801612456565b925050606085013567ffffffffffffffff81111561276e57600080fd5b61277a87828801612456565b91505092959194509250565b60006020828403121561279857600080fd5b60006127a684828501612480565b91505092915050565b6127b8816130be565b82525050565b6127c7816130ac565b82525050565b6127d6816130d0565b82525050565b6127e5816130dc565b82525050565b60006127f682612f54565b6128008185612f6a565b9350612810818560208601613181565b61281981613377565b840191505092915050565b61282d8161314e565b82525050565b600061283e82612f5f565b6128488185612f7b565b9350612858818560208601613181565b61286181613377565b840191505092915050565b600061287782612f5f565b6128818185612f8c565b9350612891818560208601613181565b80840191505092915050565b60006128aa602083612f7b565b91506128b582613388565b602082019050919050565b60006128cd603283612f7b565b91506128d8826133b1565b604082019050919050565b60006128f0602583612f7b565b91506128fb82613400565b604082019050919050565b6000612913602483612f7b565b915061291e8261344f565b604082019050919050565b6000612936601983612f7b565b91506129418261349e565b602082019050919050565b6000612959602c83612f7b565b9150612964826134c7565b604082019050919050565b600061297c603883612f7b565b915061298782613516565b604082019050919050565b600061299f602a83612f7b565b91506129aa82613565565b604082019050919050565b60006129c2602983612f7b565b91506129cd826135b4565b604082019050919050565b60006129e5602c83612f7b565b91506129f082613603565b604082019050919050565b6000612a08602f83612f7b565b9150612a1382613652565b604082019050919050565b6000612a2b602183612f7b565b9150612a36826136a1565b604082019050919050565b6000612a4e603183612f7b565b9150612a59826136f0565b604082019050919050565b6000612a71601783612f8c565b9150612a7c8261373f565b601782019050919050565b6000612a94601183612f8c565b9150612a9f82613768565b601182019050919050565b6000612ab7602f83612f7b565b9150612ac282613791565b604082019050919050565b612ad681613144565b82525050565b6000612ae8828561286c565b9150612af4828461286c565b91508190509392505050565b6000612b0b82612a64565b9150612b17828561286c565b9150612b2282612a87565b9150612b2e828461286c565b91508190509392505050565b6000602082019050612b4f60008301846127be565b92915050565b6000606082019050612b6a60008301866127be565b612b7760208301856127be565b612b846040830184612acd565b949350505050565b6000608082019050612ba160008301876127be565b612bae60208301866127be565b612bbb6040830185612acd565b8181036060830152612bcd81846127eb565b905095945050505050565b6000602082019050612bed60008301846127cd565b92915050565b6000602082019050612c0860008301846127dc565b92915050565b60006020820190508181036000830152612c288184612833565b905092915050565b60006020820190508181036000830152612c498161289d565b9050919050565b60006020820190508181036000830152612c69816128c0565b9050919050565b60006020820190508181036000830152612c89816128e3565b9050919050565b60006020820190508181036000830152612ca981612906565b9050919050565b60006020820190508181036000830152612cc981612929565b9050919050565b60006020820190508181036000830152612ce98161294c565b9050919050565b60006020820190508181036000830152612d098161296f565b9050919050565b60006020820190508181036000830152612d2981612992565b9050919050565b60006020820190508181036000830152612d49816129b5565b9050919050565b60006020820190508181036000830152612d69816129d8565b9050919050565b60006020820190508181036000830152612d89816129fb565b9050919050565b60006020820190508181036000830152612da981612a1e565b9050919050565b60006020820190508181036000830152612dc981612a41565b9050919050565b60006020820190508181036000830152612de981612aaa565b9050919050565b6000602082019050612e056000830184612acd565b92915050565b600060c082019050612e206000830189612acd565b612e2d6020830188612824565b612e3a6040830187612acd565b8181036060830152612e4c8186612833565b90508181036080830152612e608185612833565b9050612e6f60a08301846127af565b979650505050505050565b6000608082019050612e8f6000830187612acd565b612e9c6020830186612acd565b8181036040830152612eae8185612833565b90508181036060830152612ec28184612833565b905095945050505050565b6000612ed7612ee8565b9050612ee38282613210565b919050565b6000604051905090565b600067ffffffffffffffff821115612f0d57612f0c613348565b5b612f1682613377565b9050602081019050919050565b600067ffffffffffffffff821115612f3e57612f3d613348565b5b612f4782613377565b9050602081019050919050565b600081519050919050565b600081519050919050565b600082825260208201905092915050565b600082825260208201905092915050565b600081905092915050565b6000612fa282613144565b9150612fad83613144565b9250827fffffffffffffffffffffffffffffffffffffffffffffffffffffffffffffffff03821115612fe257612fe16132bb565b5b828201905092915050565b6000612ff882613144565b915061300383613144565b925082613013576130126132ea565b5b828204905092915050565b600061302982613144565b915061303483613144565b9250817fffffffffffffffffffffffffffffffffffffffffffffffffffffffffffffffff048311821515161561306d5761306c6132bb565b5b828202905092915050565b600061308382613144565b915061308e83613144565b9250828210156130a1576130a06132bb565b5b828203905092915050565b60006130b782613124565b9050919050565b60006130c982613124565b9050919050565b60008115159050919050565b6000819050919050565b60007fffffffff0000000000000000000000000000000000000000000000000000000082169050919050565b600061311d826130ac565b9050919050565b600073ffffffffffffffffffffffffffffffffffffffff82169050919050565b6000819050919050565b600061315982613160565b9050919050565b600061316b82613124565b9050919050565b82818337600083830152505050565b60005b8381101561319f578082015181840152602081019050613184565b838111156131ae576000848401525b50505050565b60006131bf82613144565b915060008214156131d3576131d26132bb565b5b600182039050919050565b600060028204905060018216806131f657607f821691505b6020821081141561320a57613209613319565b5b50919050565b61321982613377565b810181811067ffffffffffffffff8211171561323857613237613348565b5b80604052505050565b600061324c82613144565b91507fffffffffffffffffffffffffffffffffffffffffffffffffffffffffffffffff82141561327f5761327e6132bb565b5b600182019050919050565b600061329582613144565b91506132a083613144565b9250826132b0576132af6132ea565b5b828206905092915050565b7f4e487b7100000000000000000000000000000000000000000000000000000000600052601160045260246000fd5b7f4e487b7100000000000000000000000000000000000000000000000000000000600052601260045260246000fd5b7f4e487b7100000000000000000000000000000000000000000000000000000000600052602260045260246000fd5b7f4e487b7100000000000000000000000000000000000000000000000000000000600052604160045260246000fd5b6000601f19601f8301169050919050565b7f537472696e67733a20686578206c656e67746820696e73756666696369656e74600082015250565b7f4552433732313a207472616e7366657220746f206e6f6e20455243373231526560008201527f63656976657220696d706c656d656e7465720000000000000000000000000000602082015250565b7f4552433732313a207472616e736665722066726f6d20696e636f72726563742060008201527f6f776e6572000000000000000000000000000000000000000000000000000000602082015250565b7f4552433732313a207472616e7366657220746f20746865207a65726f2061646460008201527f7265737300000000000000000000000000000000000000000000000000000000602082015250565b7f4552433732313a20617070726f766520746f2063616c6c657200000000000000600082015250565b7f4552433732313a206f70657261746f7220717565727920666f72206e6f6e657860008201527f697374656e7420746f6b656e0000000000000000000000000000000000000000602082015250565b7f4552433732313a20617070726f76652063616c6c6572206973206e6f74206f7760008201527f6e6572206e6f7220617070726f76656420666f7220616c6c0000000000000000602082015250565b7f4552433732313a2062616c616e636520717565727920666f7220746865207a6560008201527f726f206164647265737300000000000000000000000000000000000000000000602082015250565b7f4552433732313a206f776e657220717565727920666f72206e6f6e657869737460008201527f656e7420746f6b656e0000000000000000000000000000000000000000000000602082015250565b7f4552433732313a20617070726f76656420717565727920666f72206e6f6e657860008201527f697374656e7420746f6b656e0000000000000000000000000000000000000000602082015250565b7f4552433732314d657461646174613a2055524920717565727920666f72206e6f60008201527f6e6578697374656e7420746f6b656e0000000000000000000000000000000000602082015250565b7f4552433732313a20617070726f76616c20746f2063757272656e74206f776e6560008201527f7200000000000000000000000000000000000000000000000000000000000000602082015250565b7f4552433732313a207472616e736665722063616c6c6572206973206e6f74206f60008201527f776e6572206e6f7220617070726f766564000000000000000000000000000000602082015250565b7f416363657373436f6e74726f6c3a206163636f756e7420000000000000000000600082015250565b7f206973206d697373696e6720726f6c6520000000000000000000000000000000600082015250565b7f416363657373436f6e74726f6c3a2063616e206f6e6c792072656e6f756e636560008201527f20726f6c657320666f722073656c660000000000000000000000000000000000602082015250565b6137e9816130ac565b81146137f457600080fd5b50565b613800816130d0565b811461380b57600080fd5b50565b613817816130dc565b811461382257600080fd5b50565b61382e816130e6565b811461383957600080fd5b50565b61384581613112565b811461385057600080fd5b50565b61385c81613144565b811461386757600080fd5b5056fea2646970667358221220bd56d59245a9576340d7d856ed4279a25b84e9b36f3b92812628b77166b9c03f64736f6c63430008040033",
  "linkReferences": {},
  "deployedLinkReferences": {}
}