{
  "_format": "hh-sol-artifact-1",
  "contractName": "ViewRecord",
  "sourceName": "contracts/ViewRecord.sol",
  "abi": [
    {
      "inputs": [],
      "stateMutability": "nonpayable",
      "type": "constructor"
    },
    {
      "anonymous": false,
      "inputs": [
        {
          "indexed": true,
          "internalType": "address",
          "name": "owner",
          "type": "address"
        },
        {
          "indexed": true,
          "internalType": "address",
          "name": "approved",
          "type": "address"
        },
        {
          "indexed": true,
          "internalType": "uint256",
          "name": "tokenId",
          "type": "uint256"
        }
      ],
      "name": "Approval",
      "type": "event"
    },
    {
      "anonymous": false,
      "inputs": [
        {
          "indexed": true,
          "internalType": "address",
          "name": "owner",
          "type": "address"
        },
        {
          "indexed": true,
          "internalType": "address",
          "name": "operator",
          "type": "address"
        },
        {
          "indexed": false,
          "internalType": "bool",
          "name": "approved",
          "type": "bool"
        }
      ],
      "name": "ApprovalForAll",
      "type": "event"
    },
    {
      "anonymous": false,
      "inputs": [
        {
          "indexed": true,
          "internalType": "bytes32",
          "name": "role",
          "type": "bytes32"
        },
        {
          "indexed": true,
          "internalType": "bytes32",
          "name": "previousAdminRole",
          "type": "bytes32"
        },
        {
          "indexed": true,
          "internalType": "bytes32",
          "name": "newAdminRole",
          "type": "bytes32"
        }
      ],
      "name": "RoleAdminChanged",
      "type": "event"
    },
    {
      "anonymous": false,
      "inputs": [
        {
          "indexed": true,
          "internalType": "bytes32",
          "name": "role",
          "type": "bytes32"
        },
        {
          "indexed": true,
          "internalType": "address",
          "name": "account",
          "type": "address"
        },
        {
          "indexed": true,
          "internalType": "address",
          "name": "sender",
          "type": "address"
        }
      ],
      "name": "RoleGranted",
      "type": "event"
    },
    {
      "anonymous": false,
      "inputs": [
        {
          "indexed": true,
          "internalType": "bytes32",
          "name": "role",
          "type": "bytes32"
        },
        {
          "indexed": true,
          "internalType": "address",
          "name": "account",
          "type": "address"
        },
        {
          "indexed": true,
          "internalType": "address",
          "name": "sender",
          "type": "address"
        }
      ],
      "name": "RoleRevoked",
      "type": "event"
    },
    {
      "anonymous": false,
      "inputs": [
        {
          "indexed": true,
          "internalType": "address",
          "name": "from",
          "type": "address"
        },
        {
          "indexed": true,
          "internalType": "address",
          "name": "to",
          "type": "address"
        },
        {
          "indexed": true,
          "internalType": "uint256",
          "name": "tokenId",
          "type": "uint256"
        }
      ],
      "name": "Transfer",
      "type": "event"
    },
    {
      "inputs": [],
      "name": "DEFAULT_ADMIN_ROLE",
      "outputs": [
        {
          "internalType": "bytes32",
          "name": "",
          "type": "bytes32"
        }
      ],
      "stateMutability": "view",
      "type": "function"
    },
    {
      "inputs": [],
      "name": "PATIENT_ROLE",
      "outputs": [
        {
          "internalType": "bytes32",
          "name": "",
          "type": "bytes32"
        }
      ],
      "stateMutability": "view",
      "type": "function"
    },
    {
      "inputs": [],
      "name": "VIEWER_ROLE",
      "outputs": [
        {
          "internalType": "bytes32",
          "name": "",
          "type": "bytes32"
        }
      ],
      "stateMutability": "view",
      "type": "function"
    },
    {
      "inputs": [
        {
          "internalType": "address",
          "name": "to",
          "type": "address"
        },
        {
          "internalType": "uint256",
          "name": "tokenId",
          "type": "uint256"
        }
      ],
      "name": "approve",
      "outputs": [],
      "stateMutability": "nonpayable",
      "type": "function"
    },
    {
      "inputs": [
        {
          "internalType": "address",
          "name": "owner",
          "type": "address"
        }
      ],
      "name": "balanceOf",
      "outputs": [
        {
          "internalType": "uint256",
          "name": "",
          "type": "uint256"
        }
      ],
      "stateMutability": "view",
      "type": "function"
    },
    {
      "inputs": [],
      "name": "checkViewPermission",
      "outputs": [
        {
          "internalType": "bool",
          "name": "canViewPerm",
          "type": "bool"
        }
      ],
      "stateMutability": "nonpayable",
      "type": "function"
    },
    {
      "inputs": [
        {
          "internalType": "uint256",
          "name": "tokenId",
          "type": "uint256"
        }
      ],
      "name": "getApproved",
      "outputs": [
        {
          "internalType": "address",
          "name": "",
          "type": "address"
        }
      ],
      "stateMutability": "view",
      "type": "function"
    },
    {
      "inputs": [
        {
          "internalType": "bytes32",
          "name": "role",
          "type": "bytes32"
        }
      ],
      "name": "getRoleAdmin",
      "outputs": [
        {
          "internalType": "bytes32",
          "name": "",
          "type": "bytes32"
        }
      ],
      "stateMutability": "view",
      "type": "function"
    },
    {
      "inputs": [
        {
          "internalType": "address",
          "name": "viewer",
          "type": "address"
        }
      ],
      "name": "giveViewPermission",
      "outputs": [],
      "stateMutability": "nonpayable",
      "type": "function"
    },
    {
      "inputs": [
        {
          "internalType": "bytes32",
          "name": "role",
          "type": "bytes32"
        },
        {
          "internalType": "address",
          "name": "account",
          "type": "address"
        }
      ],
      "name": "grantRole",
      "outputs": [],
      "stateMutability": "nonpayable",
      "type": "function"
    },
    {
      "inputs": [
        {
          "internalType": "bytes32",
          "name": "role",
          "type": "bytes32"
        },
        {
          "internalType": "address",
          "name": "account",
          "type": "address"
        }
      ],
      "name": "hasRole",
      "outputs": [
        {
          "internalType": "bool",
          "name": "",
          "type": "bool"
        }
      ],
      "stateMutability": "view",
      "type": "function"
    },
    {
      "inputs": [
        {
          "internalType": "address",
          "name": "owner",
          "type": "address"
        },
        {
          "internalType": "address",
          "name": "operator",
          "type": "address"
        }
      ],
      "name": "isApprovedForAll",
      "outputs": [
        {
          "internalType": "bool",
          "name": "",
          "type": "bool"
        }
      ],
      "stateMutability": "view",
      "type": "function"
    },
    {
      "inputs": [
        {
          "internalType": "uint256",
          "name": "",
          "type": "uint256"
        }
      ],
      "name": "items",
      "outputs": [
        {
          "internalType": "contract IERC721",
          "name": "nft",
          "type": "address"
        },
        {
          "internalType": "uint256",
          "name": "tokenId",
          "type": "uint256"
        },
        {
          "internalType": "string",
          "name": "description",
          "type": "string"
        },
        {
          "internalType": "string",
          "name": "nftName",
          "type": "string"
        }
      ],
      "stateMutability": "view",
      "type": "function"
    },
    {
      "inputs": [
        {
          "internalType": "contract IERC721",
          "name": "_nft",
          "type": "address"
        },
        {
          "internalType": "uint256",
          "name": "_tokenId",
          "type": "uint256"
        },
        {
          "internalType": "string",
          "name": "_description",
          "type": "string"
        },
        {
          "internalType": "string",
          "name": "_recordName",
          "type": "string"
        }
      ],
      "name": "makeItem",
      "outputs": [],
      "stateMutability": "nonpayable",
      "type": "function"
    },
    {
      "inputs": [],
      "name": "name",
      "outputs": [
        {
          "internalType": "string",
          "name": "",
          "type": "string"
        }
      ],
      "stateMutability": "view",
      "type": "function"
    },
    {
      "inputs": [
        {
          "internalType": "uint256",
          "name": "tokenId",
          "type": "uint256"
        }
      ],
      "name": "ownerOf",
      "outputs": [
        {
          "internalType": "address",
          "name": "",
          "type": "address"
        }
      ],
      "stateMutability": "view",
      "type": "function"
    },
    {
      "inputs": [
        {
          "internalType": "bytes32",
          "name": "role",
          "type": "bytes32"
        },
        {
          "internalType": "address",
          "name": "account",
          "type": "address"
        }
      ],
      "name": "renounceRole",
      "outputs": [],
      "stateMutability": "nonpayable",
      "type": "function"
    },
    {
      "inputs": [
        {
          "internalType": "bytes32",
          "name": "role",
          "type": "bytes32"
        },
        {
          "internalType": "address",
          "name": "account",
          "type": "address"
        }
      ],
      "name": "revokeRole",
      "outputs": [],
      "stateMutability": "nonpayable",
      "type": "function"
    },
    {
      "inputs": [
        {
          "internalType": "address",
          "name": "from",
          "type": "address"
        },
        {
          "internalType": "address",
          "name": "to",
          "type": "address"
        },
        {
          "internalType": "uint256",
          "name": "tokenId",
          "type": "uint256"
        }
      ],
      "name": "safeTransferFrom",
      "outputs": [],
      "stateMutability": "nonpayable",
      "type": "function"
    },
    {
      "inputs": [
        {
          "internalType": "address",
          "name": "from",
          "type": "address"
        },
        {
          "internalType": "address",
          "name": "to",
          "type": "address"
        },
        {
          "internalType": "uint256",
          "name": "tokenId",
          "type": "uint256"
        },
        {
          "internalType": "bytes",
          "name": "_data",
          "type": "bytes"
        }
      ],
      "name": "safeTransferFrom",
      "outputs": [],
      "stateMutability": "nonpayable",
      "type": "function"
    },
    {
      "inputs": [
        {
          "internalType": "address",
          "name": "operator",
          "type": "address"
        },
        {
          "internalType": "bool",
          "name": "approved",
          "type": "bool"
        }
      ],
      "name": "setApprovalForAll",
      "outputs": [],
      "stateMutability": "nonpayable",
      "type": "function"
    },
    {
      "inputs": [
        {
          "internalType": "bytes4",
          "name": "interfaceId",
          "type": "bytes4"
        }
      ],
      "name": "supportsInterface",
      "outputs": [
        {
          "internalType": "bool",
          "name": "",
          "type": "bool"
        }
      ],
      "stateMutability": "view",
      "type": "function"
    },
    {
      "inputs": [],
      "name": "symbol",
      "outputs": [
        {
          "internalType": "string",
          "name": "",
          "type": "string"
        }
      ],
      "stateMutability": "view",
      "type": "function"
    },
    {
      "inputs": [
        {
          "internalType": "uint256",
          "name": "tokenId",
          "type": "uint256"
        }
      ],
      "name": "tokenURI",
      "outputs": [
        {
          "internalType": "string",
          "name": "",
          "type": "string"
        }
      ],
      "stateMutability": "view",
      "type": "function"
    },
    {
      "inputs": [
        {
          "internalType": "address",
          "name": "from",
          "type": "address"
        },
        {
          "internalType": "address",
          "name": "to",
          "type": "address"
        },
        {
          "internalType": "uint256",
          "name": "tokenId",
          "type": "uint256"
        }
      ],
      "name": "transferFrom",
      "outputs": [],
      "stateMutability": "nonpayable",
      "type": "function"
    }
  ],
  "bytecode": "0x60806040523480156200001157600080fd5b506040518060400160405280600681526020017f4d794d45444900000000000000000000000000000000000000000000000000008152506040518060400160405280600481526020017f4d544b4e000000000000000000000000000000000000000000000000000000008152508160009080519060200190620000969291906200027a565b508060019080519060200190620000af9291906200027a565b505050620000e47f72606200fac42b7dc86b75901d61ecfab2a4a1a6eded478b97a428094891abed33620000ff60201b60201c565b620000f96000801b33620000ff60201b60201c565b6200038f565b6200011182826200011560201b60201c565b5050565b6200012782826200020760201b60201c565b620002035760016006600084815260200190815260200160002060000160008373ffffffffffffffffffffffffffffffffffffffff1673ffffffffffffffffffffffffffffffffffffffff16815260200190815260200160002060006101000a81548160ff021916908315150217905550620001a86200027260201b60201c565b73ffffffffffffffffffffffffffffffffffffffff168173ffffffffffffffffffffffffffffffffffffffff16837f2f8788117e7eff1d82e926ec794901d17c78024a50270940304540a733656f0d60405160405180910390a45b5050565b60006006600084815260200190815260200160002060000160008373ffffffffffffffffffffffffffffffffffffffff1673ffffffffffffffffffffffffffffffffffffffff16815260200190815260200160002060009054906101000a900460ff16905092915050565b600033905090565b82805462000288906200032a565b90600052602060002090601f016020900481019282620002ac5760008555620002f8565b82601f10620002c757805160ff1916838001178555620002f8565b82800160010185558215620002f8579182015b82811115620002f7578251825591602001919060010190620002da565b5b5090506200030791906200030b565b5090565b5b80821115620003265760008160009055506001016200030c565b5090565b600060028204905060018216806200034357607f821691505b602082108114156200035a576200035962000360565b5b50919050565b7f4e487b7100000000000000000000000000000000000000000000000000000000600052602260045260246000fd5b613640806200039f6000396000f3fe608060405234801561001057600080fd5b50600436106101735760003560e01c80636352211e116100de578063ac5cb97d11610097578063c87b56dd11610071578063c87b56dd1461045f578063d547741f1461048f578063e8c3b6a3146104ab578063e985e9c5146104c757610173565b8063ac5cb97d146103f2578063b88d4fde14610410578063bfb231d21461042c57610173565b80636352211e1461030a57806370a082311461033a57806391d148541461036a57806395d89b411461039a578063a217fddf146103b8578063a22cb465146103d657610173565b80632f2ff15d116101305780632f2ff15d1461025e57806336568abe1461027a5780633d76657e1461029657806342842e0e146102b257806350219eaf146102ce5780635971ac72146102ec57610173565b806301ffc9a71461017857806306fdde03146101a8578063081812fc146101c6578063095ea7b3146101f657806323b872dd14610212578063248a9ca31461022e575b600080fd5b610192600480360381019061018d9190612508565b6104f7565b60405161019f91906129f9565b60405180910390f35b6101b0610509565b6040516101bd9190612a82565b60405180910390f35b6101e060048036038101906101db91906125ed565b61059b565b6040516101ed9190612992565b60405180910390f35b610210600480360381019061020b9190612467565b610620565b005b61022c60048036038101906102279190612361565b610738565b005b610248600480360381019061024391906124a3565b610798565b6040516102559190612a14565b60405180910390f35b610278600480360381019061027391906124cc565b6107b8565b005b610294600480360381019061028f91906124cc565b6107e1565b005b6102b060048036038101906102ab919061255a565b610864565b005b6102cc60048036038101906102c79190612361565b61095c565b005b6102d661097c565b6040516102e39190612a14565b60405180910390f35b6102f46109a0565b60405161030191906129f9565b60405180910390f35b610324600480360381019061031f91906125ed565b610a18565b6040516103319190612992565b60405180910390f35b610354600480360381019061034f91906122fc565b610aca565b6040516103619190612c64565b60405180910390f35b610384600480360381019061037f91906124cc565b610b82565b60405161039191906129f9565b60405180910390f35b6103a2610bed565b6040516103af9190612a82565b60405180910390f35b6103c0610c7f565b6040516103cd9190612a14565b60405180910390f35b6103f060048036038101906103eb919061242b565b610c86565b005b6103fa610c9c565b6040516104079190612a14565b60405180910390f35b61042a600480360381019061042591906123b0565b610cc0565b005b610446600480360381019061044191906125ed565b610d22565b6040516104569493929190612a2f565b60405180910390f35b610479600480360381019061047491906125ed565b610e82565b6040516104869190612a82565b60405180910390f35b6104a960048036038101906104a491906124cc565b610f29565b005b6104c560048036038101906104c091906122fc565b610f52565b005b6104e160048036038101906104dc9190612325565b610f7f565b6040516104ee91906129f9565b60405180910390f35b600061050282611013565b9050919050565b60606000805461051890612f7e565b80601f016020809104026020016040519081016040528092919081815260200182805461054490612f7e565b80156105915780601f1061056657610100808354040283529160200191610591565b820191906000526020600020905b81548152906001019060200180831161057457829003601f168201915b5050505050905090565b60006105a68261108d565b6105e5576040517f08c379a00000000000000000000000000000000000000000000000000000000081526004016105dc90612bc4565b60405180910390fd5b6004600083815260200190815260200160002060009054906101000a900473ffffffffffffffffffffffffffffffffffffffff169050919050565b600061062b82610a18565b90508073ffffffffffffffffffffffffffffffffffffffff168373ffffffffffffffffffffffffffffffffffffffff16141561069c576040517f08c379a000000000000000000000000000000000000000000000000000000000815260040161069390612c04565b60405180910390fd5b8073ffffffffffffffffffffffffffffffffffffffff166106bb6110f9565b73ffffffffffffffffffffffffffffffffffffffff1614806106ea57506106e9816106e46110f9565b610f7f565b5b610729576040517f08c379a000000000000000000000000000000000000000000000000000000000815260040161072090612b64565b60405180910390fd5b6107338383611101565b505050565b6107496107436110f9565b826111ba565b610788576040517f08c379a000000000000000000000000000000000000000000000000000000000815260040161077f90612c24565b60405180910390fd5b610793838383611298565b505050565b600060066000838152602001908152602001600020600101549050919050565b6107c182610798565b6107d2816107cd6110f9565b6114ff565b6107dc838361159c565b505050565b6107e96110f9565b73ffffffffffffffffffffffffffffffffffffffff168173ffffffffffffffffffffffffffffffffffffffff1614610856576040517f08c379a000000000000000000000000000000000000000000000000000000000815260040161084d90612c44565b60405180910390fd5b610860828261167d565b5050565b6008600081548092919061087790612fe1565b919050555060405180608001604052808573ffffffffffffffffffffffffffffffffffffffff1681526020018481526020018381526020018281525060076000600854815260200190815260200160002060008201518160000160006101000a81548173ffffffffffffffffffffffffffffffffffffffff021916908373ffffffffffffffffffffffffffffffffffffffff1602179055506020820151816001015560408201518160020190805190602001906109359291906120f6565b5060608201518160030190805190602001906109529291906120f6565b5090505050505050565b61097783838360405180602001604052806000815250610cc0565b505050565b7f4e8c8e9ca39468bb90c81b80f979119441019fdac7cbbbd930e0a604f8777d1d81565b60006109cc7f72606200fac42b7dc86b75901d61ecfab2a4a1a6eded478b97a428094891abed33610b82565b806109fd57506109fc7f4e8c8e9ca39468bb90c81b80f979119441019fdac7cbbbd930e0a604f8777d1d33610b82565b5b15610a0b5760019050610a15565b610a1433610f52565b5b90565b6000806002600084815260200190815260200160002060009054906101000a900473ffffffffffffffffffffffffffffffffffffffff169050600073ffffffffffffffffffffffffffffffffffffffff168173ffffffffffffffffffffffffffffffffffffffff161415610ac1576040517f08c379a0000000000000000000000000000000000000000000000000000000008152600401610ab890612ba4565b60405180910390fd5b80915050919050565b60008073ffffffffffffffffffffffffffffffffffffffff168273ffffffffffffffffffffffffffffffffffffffff161415610b3b576040517f08c379a0000000000000000000000000000000000000000000000000000000008152600401610b3290612b84565b60405180910390fd5b600360008373ffffffffffffffffffffffffffffffffffffffff1673ffffffffffffffffffffffffffffffffffffffff168152602001908152602001600020549050919050565b60006006600084815260200190815260200160002060000160008373ffffffffffffffffffffffffffffffffffffffff1673ffffffffffffffffffffffffffffffffffffffff16815260200190815260200160002060009054906101000a900460ff16905092915050565b606060018054610bfc90612f7e565b80601f0160208091040260200160405190810160405280929190818152602001828054610c2890612f7e565b8015610c755780601f10610c4a57610100808354040283529160200191610c75565b820191906000526020600020905b815481529060010190602001808311610c5857829003601f168201915b5050505050905090565b6000801b81565b610c98610c916110f9565b838361175f565b5050565b7f72606200fac42b7dc86b75901d61ecfab2a4a1a6eded478b97a428094891abed81565b610cd1610ccb6110f9565b836111ba565b610d10576040517f08c379a0000000000000000000000000000000000000000000000000000000008152600401610d0790612c24565b60405180910390fd5b610d1c848484846118cc565b50505050565b60076020528060005260406000206000915090508060000160009054906101000a900473ffffffffffffffffffffffffffffffffffffffff1690806001015490806002018054610d7190612f7e565b80601f0160208091040260200160405190810160405280929190818152602001828054610d9d90612f7e565b8015610dea5780601f10610dbf57610100808354040283529160200191610dea565b820191906000526020600020905b815481529060010190602001808311610dcd57829003601f168201915b505050505090806003018054610dff90612f7e565b80601f0160208091040260200160405190810160405280929190818152602001828054610e2b90612f7e565b8015610e785780601f10610e4d57610100808354040283529160200191610e78565b820191906000526020600020905b815481529060010190602001808311610e5b57829003601f168201915b5050505050905084565b6060610e8d8261108d565b610ecc576040517f08c379a0000000000000000000000000000000000000000000000000000000008152600401610ec390612be4565b60405180910390fd5b6000610ed6611928565b90506000815111610ef65760405180602001604052806000815250610f21565b80610f008461193f565b604051602001610f11929190612934565b6040516020818303038152906040525b915050919050565b610f3282610798565b610f4381610f3e6110f9565b6114ff565b610f4d838361167d565b505050565b610f7c7f4e8c8e9ca39468bb90c81b80f979119441019fdac7cbbbd930e0a604f8777d1d8261159c565b50565b6000600560008473ffffffffffffffffffffffffffffffffffffffff1673ffffffffffffffffffffffffffffffffffffffff16815260200190815260200160002060008373ffffffffffffffffffffffffffffffffffffffff1673ffffffffffffffffffffffffffffffffffffffff16815260200190815260200160002060009054906101000a900460ff16905092915050565b60007f7965db0b000000000000000000000000000000000000000000000000000000007bffffffffffffffffffffffffffffffffffffffffffffffffffffffff1916827bffffffffffffffffffffffffffffffffffffffffffffffffffffffff19161480611086575061108582611aec565b5b9050919050565b60008073ffffffffffffffffffffffffffffffffffffffff166002600084815260200190815260200160002060009054906101000a900473ffffffffffffffffffffffffffffffffffffffff1673ffffffffffffffffffffffffffffffffffffffff1614159050919050565b600033905090565b816004600083815260200190815260200160002060006101000a81548173ffffffffffffffffffffffffffffffffffffffff021916908373ffffffffffffffffffffffffffffffffffffffff160217905550808273ffffffffffffffffffffffffffffffffffffffff1661117483610a18565b73ffffffffffffffffffffffffffffffffffffffff167f8c5be1e5ebec7d5bd14f71427d1e84f3dd0314c0f7b2291e5b200ac8c7c3b92560405160405180910390a45050565b60006111c58261108d565b611204576040517f08c379a00000000000000000000000000000000000000000000000000000000081526004016111fb90612b44565b60405180910390fd5b600061120f83610a18565b90508073ffffffffffffffffffffffffffffffffffffffff168473ffffffffffffffffffffffffffffffffffffffff16148061127e57508373ffffffffffffffffffffffffffffffffffffffff166112668461059b565b73ffffffffffffffffffffffffffffffffffffffff16145b8061128f575061128e8185610f7f565b5b91505092915050565b8273ffffffffffffffffffffffffffffffffffffffff166112b882610a18565b73ffffffffffffffffffffffffffffffffffffffff161461130e576040517f08c379a000000000000000000000000000000000000000000000000000000000815260040161130590612ae4565b60405180910390fd5b600073ffffffffffffffffffffffffffffffffffffffff168273ffffffffffffffffffffffffffffffffffffffff16141561137e576040517f08c379a000000000000000000000000000000000000000000000000000000000815260040161137590612b04565b60405180910390fd5b611389838383611bce565b611394600082611101565b6001600360008573ffffffffffffffffffffffffffffffffffffffff1673ffffffffffffffffffffffffffffffffffffffff16815260200190815260200160002060008282546113e49190612e2a565b925050819055506001600360008473ffffffffffffffffffffffffffffffffffffffff1673ffffffffffffffffffffffffffffffffffffffff168152602001908152602001600020600082825461143b9190612d49565b92505081905550816002600083815260200190815260200160002060006101000a81548173ffffffffffffffffffffffffffffffffffffffff021916908373ffffffffffffffffffffffffffffffffffffffff160217905550808273ffffffffffffffffffffffffffffffffffffffff168473ffffffffffffffffffffffffffffffffffffffff167fddf252ad1be2c89b69c2b068fc378daa952ba7f163c4a11628f55a4df523b3ef60405160405180910390a46114fa838383611bd3565b505050565b6115098282610b82565b6115985761152e8173ffffffffffffffffffffffffffffffffffffffff166014611bd8565b61153c8360001c6020611bd8565b60405160200161154d929190612958565b6040516020818303038152906040526040517f08c379a000000000000000000000000000000000000000000000000000000000815260040161158f9190612a82565b60405180910390fd5b5050565b6115a68282610b82565b6116795760016006600084815260200190815260200160002060000160008373ffffffffffffffffffffffffffffffffffffffff1673ffffffffffffffffffffffffffffffffffffffff16815260200190815260200160002060006101000a81548160ff02191690831515021790555061161e6110f9565b73ffffffffffffffffffffffffffffffffffffffff168173ffffffffffffffffffffffffffffffffffffffff16837f2f8788117e7eff1d82e926ec794901d17c78024a50270940304540a733656f0d60405160405180910390a45b5050565b6116878282610b82565b1561175b5760006006600084815260200190815260200160002060000160008373ffffffffffffffffffffffffffffffffffffffff1673ffffffffffffffffffffffffffffffffffffffff16815260200190815260200160002060006101000a81548160ff0219169083151502179055506117006110f9565b73ffffffffffffffffffffffffffffffffffffffff168173ffffffffffffffffffffffffffffffffffffffff16837ff6391f5c32d9c69d2a47ea670b442974b53935d1edc7fd64eb21e047a839171b60405160405180910390a45b5050565b8173ffffffffffffffffffffffffffffffffffffffff168373ffffffffffffffffffffffffffffffffffffffff1614156117ce576040517f08c379a00000000000000000000000000000000000000000000000000000000081526004016117c590612b24565b60405180910390fd5b80600560008573ffffffffffffffffffffffffffffffffffffffff1673ffffffffffffffffffffffffffffffffffffffff16815260200190815260200160002060008473ffffffffffffffffffffffffffffffffffffffff1673ffffffffffffffffffffffffffffffffffffffff16815260200190815260200160002060006101000a81548160ff0219169083151502179055508173ffffffffffffffffffffffffffffffffffffffff168373ffffffffffffffffffffffffffffffffffffffff167f17307eab39ab6107e8899845ad3d59bd9653f200f220920489ca2b5937696c31836040516118bf91906129f9565b60405180910390a3505050565b6118d7848484611298565b6118e384848484611ed2565b611922576040517f08c379a000000000000000000000000000000000000000000000000000000000815260040161191990612ac4565b60405180910390fd5b50505050565b606060405180602001604052806000815250905090565b60606000821415611987576040518060400160405280600181526020017f30000000000000000000000000000000000000000000000000000000000000008152509050611ae7565b600082905060005b600082146119b95780806119a290612fe1565b915050600a826119b29190612d9f565b915061198f565b60008167ffffffffffffffff8111156119fb577f4e487b7100000000000000000000000000000000000000000000000000000000600052604160045260246000fd5b6040519080825280601f01601f191660200182016040528015611a2d5781602001600182028036833780820191505090505b5090505b60008514611ae057600182611a469190612e2a565b9150600a85611a55919061302a565b6030611a619190612d49565b60f81b818381518110611a9d577f4e487b7100000000000000000000000000000000000000000000000000000000600052603260045260246000fd5b60200101907effffffffffffffffffffffffffffffffffffffffffffffffffffffffffffff1916908160001a905350600a85611ad99190612d9f565b9450611a31565b8093505050505b919050565b60007f80ac58cd000000000000000000000000000000000000000000000000000000007bffffffffffffffffffffffffffffffffffffffffffffffffffffffff1916827bffffffffffffffffffffffffffffffffffffffffffffffffffffffff19161480611bb757507f5b5e139f000000000000000000000000000000000000000000000000000000007bffffffffffffffffffffffffffffffffffffffffffffffffffffffff1916827bffffffffffffffffffffffffffffffffffffffffffffffffffffffff1916145b80611bc75750611bc682612069565b5b9050919050565b505050565b505050565b606060006002836002611beb9190612dd0565b611bf59190612d49565b67ffffffffffffffff811115611c34577f4e487b7100000000000000000000000000000000000000000000000000000000600052604160045260246000fd5b6040519080825280601f01601f191660200182016040528015611c665781602001600182028036833780820191505090505b5090507f300000000000000000000000000000000000000000000000000000000000000081600081518110611cc4577f4e487b7100000000000000000000000000000000000000000000000000000000600052603260045260246000fd5b60200101907effffffffffffffffffffffffffffffffffffffffffffffffffffffffffffff1916908160001a9053507f780000000000000000000000000000000000000000000000000000000000000081600181518110611d4e577f4e487b7100000000000000000000000000000000000000000000000000000000600052603260045260246000fd5b60200101907effffffffffffffffffffffffffffffffffffffffffffffffffffffffffffff1916908160001a90535060006001846002611d8e9190612dd0565b611d989190612d49565b90505b6001811115611e84577f3031323334353637383961626364656600000000000000000000000000000000600f861660108110611e00577f4e487b7100000000000000000000000000000000000000000000000000000000600052603260045260246000fd5b1a60f81b828281518110611e3d577f4e487b7100000000000000000000000000000000000000000000000000000000600052603260045260246000fd5b60200101907effffffffffffffffffffffffffffffffffffffffffffffffffffffffffffff1916908160001a905350600485901c945080611e7d90612f54565b9050611d9b565b5060008414611ec8576040517f08c379a0000000000000000000000000000000000000000000000000000000008152600401611ebf90612aa4565b60405180910390fd5b8091505092915050565b6000611ef38473ffffffffffffffffffffffffffffffffffffffff166120d3565b1561205c578373ffffffffffffffffffffffffffffffffffffffff1663150b7a02611f1c6110f9565b8786866040518563ffffffff1660e01b8152600401611f3e94939291906129ad565b602060405180830381600087803b158015611f5857600080fd5b505af1925050508015611f8957506040513d601f19601f82011682018060405250810190611f869190612531565b60015b61200c573d8060008114611fb9576040519150601f19603f3d011682016040523d82523d6000602084013e611fbe565b606091505b50600081511415612004576040517f08c379a0000000000000000000000000000000000000000000000000000000008152600401611ffb90612ac4565b60405180910390fd5b805181602001fd5b63150b7a0260e01b7bffffffffffffffffffffffffffffffffffffffffffffffffffffffff1916817bffffffffffffffffffffffffffffffffffffffffffffffffffffffff191614915050612061565b600190505b949350505050565b60007f01ffc9a7000000000000000000000000000000000000000000000000000000007bffffffffffffffffffffffffffffffffffffffffffffffffffffffff1916827bffffffffffffffffffffffffffffffffffffffffffffffffffffffff1916149050919050565b6000808273ffffffffffffffffffffffffffffffffffffffff163b119050919050565b82805461210290612f7e565b90600052602060002090601f016020900481019282612124576000855561216b565b82601f1061213d57805160ff191683800117855561216b565b8280016001018555821561216b579182015b8281111561216a57825182559160200191906001019061214f565b5b509050612178919061217c565b5090565b5b8082111561219557600081600090555060010161217d565b5090565b60006121ac6121a784612ca4565b612c7f565b9050828152602081018484840111156121c457600080fd5b6121cf848285612f12565b509392505050565b60006121ea6121e584612cd5565b612c7f565b90508281526020810184848401111561220257600080fd5b61220d848285612f12565b509392505050565b60008135905061222481613580565b92915050565b60008135905061223981613597565b92915050565b60008135905061224e816135ae565b92915050565b600081359050612263816135c5565b92915050565b600081519050612278816135c5565b92915050565b600082601f83011261228f57600080fd5b813561229f848260208601612199565b91505092915050565b6000813590506122b7816135dc565b92915050565b600082601f8301126122ce57600080fd5b81356122de8482602086016121d7565b91505092915050565b6000813590506122f6816135f3565b92915050565b60006020828403121561230e57600080fd5b600061231c84828501612215565b91505092915050565b6000806040838503121561233857600080fd5b600061234685828601612215565b925050602061235785828601612215565b9150509250929050565b60008060006060848603121561237657600080fd5b600061238486828701612215565b935050602061239586828701612215565b92505060406123a6868287016122e7565b9150509250925092565b600080600080608085870312156123c657600080fd5b60006123d487828801612215565b94505060206123e587828801612215565b93505060406123f6878288016122e7565b925050606085013567ffffffffffffffff81111561241357600080fd5b61241f8782880161227e565b91505092959194509250565b6000806040838503121561243e57600080fd5b600061244c85828601612215565b925050602061245d8582860161222a565b9150509250929050565b6000806040838503121561247a57600080fd5b600061248885828601612215565b9250506020612499858286016122e7565b9150509250929050565b6000602082840312156124b557600080fd5b60006124c38482850161223f565b91505092915050565b600080604083850312156124df57600080fd5b60006124ed8582860161223f565b92505060206124fe85828601612215565b9150509250929050565b60006020828403121561251a57600080fd5b600061252884828501612254565b91505092915050565b60006020828403121561254357600080fd5b600061255184828501612269565b91505092915050565b6000806000806080858703121561257057600080fd5b600061257e878288016122a8565b945050602061258f878288016122e7565b935050604085013567ffffffffffffffff8111156125ac57600080fd5b6125b8878288016122bd565b925050606085013567ffffffffffffffff8111156125d557600080fd5b6125e1878288016122bd565b91505092959194509250565b6000602082840312156125ff57600080fd5b600061260d848285016122e7565b91505092915050565b61261f81612e5e565b82525050565b61262e81612e70565b82525050565b61263d81612e7c565b82525050565b600061264e82612d06565b6126588185612d1c565b9350612668818560208601612f21565b61267181613117565b840191505092915050565b61268581612eee565b82525050565b600061269682612d11565b6126a08185612d2d565b93506126b0818560208601612f21565b6126b981613117565b840191505092915050565b60006126cf82612d11565b6126d98185612d3e565b93506126e9818560208601612f21565b80840191505092915050565b6000612702602083612d2d565b915061270d82613128565b602082019050919050565b6000612725603283612d2d565b915061273082613151565b604082019050919050565b6000612748602583612d2d565b9150612753826131a0565b604082019050919050565b600061276b602483612d2d565b9150612776826131ef565b604082019050919050565b600061278e601983612d2d565b91506127998261323e565b602082019050919050565b60006127b1602c83612d2d565b91506127bc82613267565b604082019050919050565b60006127d4603883612d2d565b91506127df826132b6565b604082019050919050565b60006127f7602a83612d2d565b915061280282613305565b604082019050919050565b600061281a602983612d2d565b915061282582613354565b604082019050919050565b600061283d602c83612d2d565b9150612848826133a3565b604082019050919050565b6000612860602f83612d2d565b915061286b826133f2565b604082019050919050565b6000612883602183612d2d565b915061288e82613441565b604082019050919050565b60006128a6603183612d2d565b91506128b182613490565b604082019050919050565b60006128c9601783612d3e565b91506128d4826134df565b601782019050919050565b60006128ec601183612d3e565b91506128f782613508565b601182019050919050565b600061290f602f83612d2d565b915061291a82613531565b604082019050919050565b61292e81612ee4565b82525050565b600061294082856126c4565b915061294c82846126c4565b91508190509392505050565b6000612963826128bc565b915061296f82856126c4565b915061297a826128df565b915061298682846126c4565b91508190509392505050565b60006020820190506129a76000830184612616565b92915050565b60006080820190506129c26000830187612616565b6129cf6020830186612616565b6129dc6040830185612925565b81810360608301526129ee8184612643565b905095945050505050565b6000602082019050612a0e6000830184612625565b92915050565b6000602082019050612a296000830184612634565b92915050565b6000608082019050612a44600083018761267c565b612a516020830186612925565b8181036040830152612a63818561268b565b90508181036060830152612a77818461268b565b905095945050505050565b60006020820190508181036000830152612a9c818461268b565b905092915050565b60006020820190508181036000830152612abd816126f5565b9050919050565b60006020820190508181036000830152612add81612718565b9050919050565b60006020820190508181036000830152612afd8161273b565b9050919050565b60006020820190508181036000830152612b1d8161275e565b9050919050565b60006020820190508181036000830152612b3d81612781565b9050919050565b60006020820190508181036000830152612b5d816127a4565b9050919050565b60006020820190508181036000830152612b7d816127c7565b9050919050565b60006020820190508181036000830152612b9d816127ea565b9050919050565b60006020820190508181036000830152612bbd8161280d565b9050919050565b60006020820190508181036000830152612bdd81612830565b9050919050565b60006020820190508181036000830152612bfd81612853565b9050919050565b60006020820190508181036000830152612c1d81612876565b9050919050565b60006020820190508181036000830152612c3d81612899565b9050919050565b60006020820190508181036000830152612c5d81612902565b9050919050565b6000602082019050612c796000830184612925565b92915050565b6000612c89612c9a565b9050612c958282612fb0565b919050565b6000604051905090565b600067ffffffffffffffff821115612cbf57612cbe6130e8565b5b612cc882613117565b9050602081019050919050565b600067ffffffffffffffff821115612cf057612cef6130e8565b5b612cf982613117565b9050602081019050919050565b600081519050919050565b600081519050919050565b600082825260208201905092915050565b600082825260208201905092915050565b600081905092915050565b6000612d5482612ee4565b9150612d5f83612ee4565b9250827fffffffffffffffffffffffffffffffffffffffffffffffffffffffffffffffff03821115612d9457612d9361305b565b5b828201905092915050565b6000612daa82612ee4565b9150612db583612ee4565b925082612dc557612dc461308a565b5b828204905092915050565b6000612ddb82612ee4565b9150612de683612ee4565b9250817fffffffffffffffffffffffffffffffffffffffffffffffffffffffffffffffff0483118215151615612e1f57612e1e61305b565b5b828202905092915050565b6000612e3582612ee4565b9150612e4083612ee4565b925082821015612e5357612e5261305b565b5b828203905092915050565b6000612e6982612ec4565b9050919050565b60008115159050919050565b6000819050919050565b60007fffffffff0000000000000000000000000000000000000000000000000000000082169050919050565b6000612ebd82612e5e565b9050919050565b600073ffffffffffffffffffffffffffffffffffffffff82169050919050565b6000819050919050565b6000612ef982612f00565b9050919050565b6000612f0b82612ec4565b9050919050565b82818337600083830152505050565b60005b83811015612f3f578082015181840152602081019050612f24565b83811115612f4e576000848401525b50505050565b6000612f5f82612ee4565b91506000821415612f7357612f7261305b565b5b600182039050919050565b60006002820490506001821680612f9657607f821691505b60208210811415612faa57612fa96130b9565b5b50919050565b612fb982613117565b810181811067ffffffffffffffff82111715612fd857612fd76130e8565b5b80604052505050565b6000612fec82612ee4565b91507fffffffffffffffffffffffffffffffffffffffffffffffffffffffffffffffff82141561301f5761301e61305b565b5b600182019050919050565b600061303582612ee4565b915061304083612ee4565b9250826130505761304f61308a565b5b828206905092915050565b7f4e487b7100000000000000000000000000000000000000000000000000000000600052601160045260246000fd5b7f4e487b7100000000000000000000000000000000000000000000000000000000600052601260045260246000fd5b7f4e487b7100000000000000000000000000000000000000000000000000000000600052602260045260246000fd5b7f4e487b7100000000000000000000000000000000000000000000000000000000600052604160045260246000fd5b6000601f19601f8301169050919050565b7f537472696e67733a20686578206c656e67746820696e73756666696369656e74600082015250565b7f4552433732313a207472616e7366657220746f206e6f6e20455243373231526560008201527f63656976657220696d706c656d656e7465720000000000000000000000000000602082015250565b7f4552433732313a207472616e736665722066726f6d20696e636f72726563742060008201527f6f776e6572000000000000000000000000000000000000000000000000000000602082015250565b7f4552433732313a207472616e7366657220746f20746865207a65726f2061646460008201527f7265737300000000000000000000000000000000000000000000000000000000602082015250565b7f4552433732313a20617070726f766520746f2063616c6c657200000000000000600082015250565b7f4552433732313a206f70657261746f7220717565727920666f72206e6f6e657860008201527f697374656e7420746f6b656e0000000000000000000000000000000000000000602082015250565b7f4552433732313a20617070726f76652063616c6c6572206973206e6f74206f7760008201527f6e6572206e6f7220617070726f76656420666f7220616c6c0000000000000000602082015250565b7f4552433732313a2062616c616e636520717565727920666f7220746865207a6560008201527f726f206164647265737300000000000000000000000000000000000000000000602082015250565b7f4552433732313a206f776e657220717565727920666f72206e6f6e657869737460008201527f656e7420746f6b656e0000000000000000000000000000000000000000000000602082015250565b7f4552433732313a20617070726f76656420717565727920666f72206e6f6e657860008201527f697374656e7420746f6b656e0000000000000000000000000000000000000000602082015250565b7f4552433732314d657461646174613a2055524920717565727920666f72206e6f60008201527f6e6578697374656e7420746f6b656e0000000000000000000000000000000000602082015250565b7f4552433732313a20617070726f76616c20746f2063757272656e74206f776e6560008201527f7200000000000000000000000000000000000000000000000000000000000000602082015250565b7f4552433732313a207472616e736665722063616c6c6572206973206e6f74206f60008201527f776e6572206e6f7220617070726f766564000000000000000000000000000000602082015250565b7f416363657373436f6e74726f6c3a206163636f756e7420000000000000000000600082015250565b7f206973206d697373696e6720726f6c6520000000000000000000000000000000600082015250565b7f416363657373436f6e74726f6c3a2063616e206f6e6c792072656e6f756e636560008201527f20726f6c657320666f722073656c660000000000000000000000000000000000602082015250565b61358981612e5e565b811461359457600080fd5b50565b6135a081612e70565b81146135ab57600080fd5b50565b6135b781612e7c565b81146135c257600080fd5b50565b6135ce81612e86565b81146135d957600080fd5b50565b6135e581612eb2565b81146135f057600080fd5b50565b6135fc81612ee4565b811461360757600080fd5b5056fea26469706673582212207cc4c63d0ed7799a5fc47655db0ee915b2e3903d86396a7dc7bdd8919a2df5e064736f6c63430008040033",
  "linkReferences": {},
  "deployedLinkReferences": {}
}